{
  "_format": "hh-sol-artifact-1",
  "contractName": "MissingPeople",
  "sourceName": "contracts/MissingPeople.sol",
  "abi": [
    {
      "anonymous": false,
      "inputs": [
        {
          "indexed": false,
          "internalType": "uint256",
          "name": "date",
          "type": "uint256"
        },
        {
          "indexed": false,
          "internalType": "enum MissingPeople.Resolution",
          "name": "resolution",
          "type": "uint8"
        }
      ],
      "name": "CaseClosed",
      "type": "event"
    },
    {
      "anonymous": false,
      "inputs": [],
      "name": "CaseFollowup",
      "type": "event"
    },
    {
      "inputs": [
        {
          "internalType": "uint256",
          "name": "id",
          "type": "uint256"
        },
        {
          "internalType": "enum MissingPeople.Resolution",
          "name": "resolution",
          "type": "uint8"
        }
      ],
      "name": "closeCase",
      "outputs": [],
      "stateMutability": "nonpayable",
      "type": "function"
    },
    {
      "inputs": [
        {
          "internalType": "string",
          "name": "description",
          "type": "string"
        },
        {
          "internalType": "uint256",
          "name": "id",
          "type": "uint256"
        }
      ],
      "name": "createFollowup",
      "outputs": [],
      "stateMutability": "nonpayable",
      "type": "function"
    },
    {
      "inputs": [
        {
          "components": [
            {
              "internalType": "string",
              "name": "lat",
              "type": "string"
            },
            {
              "internalType": "string",
              "name": "lng",
              "type": "string"
            },
            {
              "internalType": "string",
              "name": "radius",
              "type": "string"
            }
          ],
          "internalType": "struct MissingPeople.Coordinates[]",
          "name": "location",
          "type": "tuple[]"
        },
        {
          "components": [
            {
              "internalType": "enum MissingPeople.CommonColors",
              "name": "eyes",
              "type": "uint8"
            },
            {
              "internalType": "enum MissingPeople.CommonColors",
              "name": "hair",
              "type": "uint8"
            },
            {
              "internalType": "enum MissingPeople.Genre",
              "name": "genre",
              "type": "uint8"
            },
            {
              "internalType": "string",
              "name": "remarks",
              "type": "string"
            },
            {
              "internalType": "string",
              "name": "name",
              "type": "string"
            },
            {
              "internalType": "uint256",
              "name": "birthDate",
              "type": "uint256"
            },
            {
              "internalType": "string",
              "name": "nationality",
              "type": "string"
            },
            {
              "internalType": "uint256",
              "name": "weight",
              "type": "uint256"
            },
            {
              "internalType": "uint256",
              "name": "height",
              "type": "uint256"
            },
            {
              "internalType": "string[]",
              "name": "images",
              "type": "string[]"
            }
          ],
          "internalType": "struct MissingPeople.Person",
          "name": "missingPerson",
          "type": "tuple"
        }
      ],
      "name": "createReport",
      "outputs": [],
      "stateMutability": "nonpayable",
      "type": "function"
    },
    {
      "inputs": [
        {
          "internalType": "uint256",
          "name": "",
          "type": "uint256"
        }
      ],
      "name": "crimeReports",
      "outputs": [
        {
          "internalType": "uint256",
          "name": "id",
          "type": "uint256"
        },
        {
          "internalType": "address",
          "name": "reporter",
          "type": "address"
        },
        {
          "internalType": "uint256",
          "name": "created",
          "type": "uint256"
        },
        {
          "internalType": "enum MissingPeople.Resolution",
          "name": "resolution",
          "type": "uint8"
        },
        {
          "components": [
            {
              "internalType": "enum MissingPeople.CommonColors",
              "name": "eyes",
              "type": "uint8"
            },
            {
              "internalType": "enum MissingPeople.CommonColors",
              "name": "hair",
              "type": "uint8"
            },
            {
              "internalType": "enum MissingPeople.Genre",
              "name": "genre",
              "type": "uint8"
            },
            {
              "internalType": "string",
              "name": "remarks",
              "type": "string"
            },
            {
              "internalType": "string",
              "name": "name",
              "type": "string"
            },
            {
              "internalType": "uint256",
              "name": "birthDate",
              "type": "uint256"
            },
            {
              "internalType": "string",
              "name": "nationality",
              "type": "string"
            },
            {
              "internalType": "uint256",
              "name": "weight",
              "type": "uint256"
            },
            {
              "internalType": "uint256",
              "name": "height",
              "type": "uint256"
            },
            {
              "internalType": "string[]",
              "name": "images",
              "type": "string[]"
            }
          ],
          "internalType": "struct MissingPeople.Person",
          "name": "missingPerson",
          "type": "tuple"
        }
      ],
      "stateMutability": "view",
      "type": "function"
    },
    {
      "inputs": [
        {
          "internalType": "uint256",
          "name": "",
          "type": "uint256"
        },
        {
          "internalType": "uint256",
          "name": "",
          "type": "uint256"
        }
      ],
      "name": "followUpReports",
      "outputs": [
        {
          "internalType": "string",
          "name": "description",
          "type": "string"
        },
        {
          "internalType": "uint256",
          "name": "created",
          "type": "uint256"
        },
        {
          "internalType": "address",
          "name": "reporter",
          "type": "address"
        },
        {
          "internalType": "uint256",
          "name": "report",
          "type": "uint256"
        }
      ],
      "stateMutability": "view",
      "type": "function"
    },
    {
      "inputs": [
        {
          "internalType": "uint256",
          "name": "id",
          "type": "uint256"
        }
      ],
      "name": "getAllReportCoordinates",
      "outputs": [
        {
          "components": [
            {
              "internalType": "string",
              "name": "lat",
              "type": "string"
            },
            {
              "internalType": "string",
              "name": "lng",
              "type": "string"
            },
            {
              "internalType": "string",
              "name": "radius",
              "type": "string"
            }
          ],
          "internalType": "struct MissingPeople.Coordinates[]",
          "name": "",
          "type": "tuple[]"
        }
      ],
      "stateMutability": "view",
      "type": "function"
    },
    {
      "inputs": [],
      "name": "getCrimeReports",
      "outputs": [
        {
          "components": [
            {
              "internalType": "uint256",
              "name": "id",
              "type": "uint256"
            },
            {
              "internalType": "address",
              "name": "reporter",
              "type": "address"
            },
            {
              "internalType": "uint256",
              "name": "created",
              "type": "uint256"
            },
            {
              "internalType": "enum MissingPeople.Resolution",
              "name": "resolution",
              "type": "uint8"
            },
            {
              "components": [
                {
                  "internalType": "enum MissingPeople.CommonColors",
                  "name": "eyes",
                  "type": "uint8"
                },
                {
                  "internalType": "enum MissingPeople.CommonColors",
                  "name": "hair",
                  "type": "uint8"
                },
                {
                  "internalType": "enum MissingPeople.Genre",
                  "name": "genre",
                  "type": "uint8"
                },
                {
                  "internalType": "string",
                  "name": "remarks",
                  "type": "string"
                },
                {
                  "internalType": "string",
                  "name": "name",
                  "type": "string"
                },
                {
                  "internalType": "uint256",
                  "name": "birthDate",
                  "type": "uint256"
                },
                {
                  "internalType": "string",
                  "name": "nationality",
                  "type": "string"
                },
                {
                  "internalType": "uint256",
                  "name": "weight",
                  "type": "uint256"
                },
                {
                  "internalType": "uint256",
                  "name": "height",
                  "type": "uint256"
                },
                {
                  "internalType": "string[]",
                  "name": "images",
                  "type": "string[]"
                }
              ],
              "internalType": "struct MissingPeople.Person",
              "name": "missingPerson",
              "type": "tuple"
            }
          ],
          "internalType": "struct MissingPeople.Report[]",
          "name": "",
          "type": "tuple[]"
        }
      ],
      "stateMutability": "view",
      "type": "function"
    },
    {
      "inputs": [
        {
          "internalType": "uint256",
          "name": "reportId",
          "type": "uint256"
        }
      ],
      "name": "getFollowupReports",
      "outputs": [
        {
          "components": [
            {
              "internalType": "string",
              "name": "description",
              "type": "string"
            },
            {
              "internalType": "uint256",
              "name": "created",
              "type": "uint256"
            },
            {
              "internalType": "address",
              "name": "reporter",
              "type": "address"
            },
            {
              "internalType": "uint256",
              "name": "report",
              "type": "uint256"
            }
          ],
          "internalType": "struct MissingPeople.FollowUpReport[]",
          "name": "",
          "type": "tuple[]"
        }
      ],
      "stateMutability": "view",
      "type": "function"
    },
    {
      "inputs": [
        {
          "internalType": "uint256",
          "name": "",
          "type": "uint256"
        },
        {
          "internalType": "uint256",
          "name": "",
          "type": "uint256"
        }
      ],
      "name": "reportCoordinates",
      "outputs": [
        {
          "internalType": "string",
          "name": "lat",
          "type": "string"
        },
        {
          "internalType": "string",
          "name": "lng",
          "type": "string"
        },
        {
          "internalType": "string",
          "name": "radius",
          "type": "string"
        }
      ],
      "stateMutability": "view",
      "type": "function"
    }
  ],
  "bytecode": "0x608060405234801561001057600080fd5b50612aab806100206000396000f3fe608060405234801561001057600080fd5b50600436106100935760003560e01c80635e7725a3116100665780635e7725a3146101305780637f40af8d1461014e578063aff058fc1461016a578063c91dc8881461019e578063df361fcb146101d057610093565b806301db185c14610098578063244034be146100b4578063266a74c1146100e45780632d21909014610100575b600080fd5b6100b260048036038101906100ad919061192e565b610203565b005b6100ce60048036038101906100c9919061198a565b610326565b6040516100db9190611bb4565b60405180910390f35b6100fe60048036038101906100f99190611bfb565b610494565b005b61011a6004803603810190610115919061198a565b6105d1565b6040516101279190611d5b565b60405180910390f35b6101386107f8565b604051610145919061216d565b60405180910390f35b610168600480360381019061016391906125c8565b610c6f565b005b610184600480360381019061017f919061198a565b610f87565b60405161019595949392919061275c565b60405180910390f35b6101b860048036038101906101b391906127b6565b611363565b6040516101c793929190612840565b60405180910390f35b6101ea60048036038101906101e591906127b6565b611542565b6040516101fa949392919061288c565b60405180910390f35b600060405180608001604052808481526020014281526020013373ffffffffffffffffffffffffffffffffffffffff168152602001838152509050600160008381526020019081526020016000208190806001815401808255809150506001900390600052602060002090600402016000909190919091506000820151816000019080519060200190610297929190611637565b506020820151816001015560408201518160020160006101000a81548173ffffffffffffffffffffffffffffffffffffffff021916908373ffffffffffffffffffffffffffffffffffffffff1602179055506060820151816003015550507f27bc565353ac33dadbafeccf6130a5665f824f9384610858ec18bc2e91e95d6a60405160405180910390a1505050565b606060016000838152602001908152602001600020805480602002602001604051908101604052809291908181526020016000905b82821015610489578382906000526020600020906004020160405180608001604052908160008201805461038e90612907565b80601f01602080910402602001604051908101604052809291908181526020018280546103ba90612907565b80156104075780601f106103dc57610100808354040283529160200191610407565b820191906000526020600020905b8154815290600101906020018083116103ea57829003601f168201915b50505050508152602001600182015481526020016002820160009054906101000a900473ffffffffffffffffffffffffffffffffffffffff1673ffffffffffffffffffffffffffffffffffffffff1673ffffffffffffffffffffffffffffffffffffffff1681526020016003820154815250508152602001906001019061035b565b505050509050919050565b600282815481106104a8576104a7612939565b5b90600052602060002090600c020160010160009054906101000a900473ffffffffffffffffffffffffffffffffffffffff1673ffffffffffffffffffffffffffffffffffffffff163373ffffffffffffffffffffffffffffffffffffffff1614610547576040517f08c379a000000000000000000000000000000000000000000000000000000000815260040161053e906129b4565b60405180910390fd5b806002838154811061055c5761055b612939565b5b90600052602060002090600c020160030160006101000a81548160ff0219169083600381111561058f5761058e611da9565b5b02179055507fd0adc5d52a4f2aa7bdf368911ade812c5e1b64b60ae689c36fe9ba6058941dda42826040516105c59291906129d4565b60405180910390a15050565b6060600080838152602001908152602001600020805480602002602001604051908101604052809291908181526020016000905b828210156107ed578382906000526020600020906003020160405180606001604052908160008201805461063890612907565b80601f016020809104026020016040519081016040528092919081815260200182805461066490612907565b80156106b15780601f10610686576101008083540402835291602001916106b1565b820191906000526020600020905b81548152906001019060200180831161069457829003601f168201915b505050505081526020016001820180546106ca90612907565b80601f01602080910402602001604051908101604052809291908181526020018280546106f690612907565b80156107435780601f1061071857610100808354040283529160200191610743565b820191906000526020600020905b81548152906001019060200180831161072657829003601f168201915b5050505050815260200160028201805461075c90612907565b80601f016020809104026020016040519081016040528092919081815260200182805461078890612907565b80156107d55780601f106107aa576101008083540402835291602001916107d5565b820191906000526020600020905b8154815290600101906020018083116107b857829003601f168201915b50505050508152505081526020019060010190610605565b505050509050919050565b60606002805480602002602001604051908101604052809291908181526020016000905b82821015610c6657838290600052602060002090600c02016040518060a0016040529081600082015481526020016001820160009054906101000a900473ffffffffffffffffffffffffffffffffffffffff1673ffffffffffffffffffffffffffffffffffffffff1673ffffffffffffffffffffffffffffffffffffffff168152602001600282015481526020016003820160009054906101000a900460ff1660038111156108ce576108cd611da9565b5b60038111156108e0576108df611da9565b5b815260200160048201604051806101400160405290816000820160009054906101000a900460ff16600381111561091a57610919611da9565b5b600381111561092c5761092b611da9565b5b81526020016000820160019054906101000a900460ff16600381111561095557610954611da9565b5b600381111561096757610966611da9565b5b81526020016000820160029054906101000a900460ff1660028111156109905761098f611da9565b5b60028111156109a2576109a1611da9565b5b81526020016001820180546109b690612907565b80601f01602080910402602001604051908101604052809291908181526020018280546109e290612907565b8015610a2f5780601f10610a0457610100808354040283529160200191610a2f565b820191906000526020600020905b815481529060010190602001808311610a1257829003601f168201915b50505050508152602001600282018054610a4890612907565b80601f0160208091040260200160405190810160405280929190818152602001828054610a7490612907565b8015610ac15780601f10610a9657610100808354040283529160200191610ac1565b820191906000526020600020905b815481529060010190602001808311610aa457829003601f168201915b5050505050815260200160038201548152602001600482018054610ae490612907565b80601f0160208091040260200160405190810160405280929190818152602001828054610b1090612907565b8015610b5d5780601f10610b3257610100808354040283529160200191610b5d565b820191906000526020600020905b815481529060010190602001808311610b4057829003601f168201915b50505050508152602001600582015481526020016006820154815260200160078201805480602002602001604051908101604052809291908181526020016000905b82821015610c4b578382906000526020600020018054610bbe90612907565b80601f0160208091040260200160405190810160405280929190818152602001828054610bea90612907565b8015610c375780601f10610c0c57610100808354040283529160200191610c37565b820191906000526020600020905b815481529060010190602001808311610c1a57829003601f168201915b505050505081526020019060010190610b9f565b5050505081525050815250508152602001906001019061081c565b50505050905090565b60006040518060a0016040528060028054905081526020013373ffffffffffffffffffffffffffffffffffffffff168152602001428152602001600380811115610cbc57610cbb611da9565b5b815260200183815250905060028190806001815401808255809150506001900390600052602060002090600c02016000909190919091506000820151816000015560208201518160010160006101000a81548173ffffffffffffffffffffffffffffffffffffffff021916908373ffffffffffffffffffffffffffffffffffffffff1602179055506040820151816002015560608201518160030160006101000a81548160ff02191690836003811115610d7957610d78611da9565b5b021790555060808201518160040160008201518160000160006101000a81548160ff02191690836003811115610db257610db1611da9565b5b021790555060208201518160000160016101000a81548160ff02191690836003811115610de257610de1611da9565b5b021790555060408201518160000160026101000a81548160ff02191690836002811115610e1257610e11611da9565b5b02179055506060820151816001019080519060200190610e33929190611637565b506080820151816002019080519060200190610e50929190611637565b5060a0820151816003015560c0820151816004019080519060200190610e77929190611637565b5060e082015181600501556101008201518160060155610120820151816007019080519060200190610eaa9291906116bd565b505050505060005b8351811015610f815760008083600001518152602001908152602001600020848281518110610ee457610ee3612939565b5b602002602001015190806001815401808255809150506001900390600052602060002090600302016000909190919091506000820151816000019080519060200190610f31929190611637565b506020820151816001019080519060200190610f4e929190611637565b506040820151816002019080519060200190610f6b929190611637565b5050508080610f7990612a2c565b915050610eb2565b50505050565b60028181548110610f9757600080fd5b90600052602060002090600c02016000915090508060000154908060010160009054906101000a900473ffffffffffffffffffffffffffffffffffffffff16908060020154908060030160009054906101000a900460ff169080600401604051806101400160405290816000820160009054906101000a900460ff16600381111561102557611024611da9565b5b600381111561103757611036611da9565b5b81526020016000820160019054906101000a900460ff1660038111156110605761105f611da9565b5b600381111561107257611071611da9565b5b81526020016000820160029054906101000a900460ff16600281111561109b5761109a611da9565b5b60028111156110ad576110ac611da9565b5b81526020016001820180546110c190612907565b80601f01602080910402602001604051908101604052809291908181526020018280546110ed90612907565b801561113a5780601f1061110f5761010080835404028352916020019161113a565b820191906000526020600020905b81548152906001019060200180831161111d57829003601f168201915b5050505050815260200160028201805461115390612907565b80601f016020809104026020016040519081016040528092919081815260200182805461117f90612907565b80156111cc5780601f106111a1576101008083540402835291602001916111cc565b820191906000526020600020905b8154815290600101906020018083116111af57829003601f168201915b50505050508152602001600382015481526020016004820180546111ef90612907565b80601f016020809104026020016040519081016040528092919081815260200182805461121b90612907565b80156112685780601f1061123d57610100808354040283529160200191611268565b820191906000526020600020905b81548152906001019060200180831161124b57829003601f168201915b50505050508152602001600582015481526020016006820154815260200160078201805480602002602001604051908101604052809291908181526020016000905b828210156113565783829060005260206000200180546112c990612907565b80601f01602080910402602001604051908101604052809291908181526020018280546112f590612907565b80156113425780601f1061131757610100808354040283529160200191611342565b820191906000526020600020905b81548152906001019060200180831161132557829003601f168201915b5050505050815260200190600101906112aa565b5050505081525050905085565b6000602052816000526040600020818154811061137f57600080fd5b9060005260206000209060030201600091509150508060000180546113a390612907565b80601f01602080910402602001604051908101604052809291908181526020018280546113cf90612907565b801561141c5780601f106113f15761010080835404028352916020019161141c565b820191906000526020600020905b8154815290600101906020018083116113ff57829003601f168201915b50505050509080600101805461143190612907565b80601f016020809104026020016040519081016040528092919081815260200182805461145d90612907565b80156114aa5780601f1061147f576101008083540402835291602001916114aa565b820191906000526020600020905b81548152906001019060200180831161148d57829003601f168201915b5050505050908060020180546114bf90612907565b80601f01602080910402602001604051908101604052809291908181526020018280546114eb90612907565b80156115385780601f1061150d57610100808354040283529160200191611538565b820191906000526020600020905b81548152906001019060200180831161151b57829003601f168201915b5050505050905083565b6001602052816000526040600020818154811061155e57600080fd5b90600052602060002090600402016000915091505080600001805461158290612907565b80601f01602080910402602001604051908101604052809291908181526020018280546115ae90612907565b80156115fb5780601f106115d0576101008083540402835291602001916115fb565b820191906000526020600020905b8154815290600101906020018083116115de57829003601f168201915b5050505050908060010154908060020160009054906101000a900473ffffffffffffffffffffffffffffffffffffffff16908060030154905084565b82805461164390612907565b90600052602060002090601f01602090048101928261166557600085556116ac565b82601f1061167e57805160ff19168380011785556116ac565b828001600101855582156116ac579182015b828111156116ab578251825591602001919060010190611690565b5b5090506116b9919061171d565b5090565b82805482825590600052602060002090810192821561170c579160200282015b8281111561170b5782518290805190602001906116fb929190611637565b50916020019190600101906116dd565b5b509050611719919061173a565b5090565b5b8082111561173657600081600090555060010161171e565b5090565b5b8082111561175a5760008181611751919061175e565b5060010161173b565b5090565b50805461176a90612907565b6000825580601f1061177c575061179b565b601f01602090049060005260206000209081019061179a919061171d565b5b50565b6000604051905090565b600080fd5b600080fd5b600080fd5b600080fd5b6000601f19601f8301169050919050565b7f4e487b7100000000000000000000000000000000000000000000000000000000600052604160045260246000fd5b611805826117bc565b810181811067ffffffffffffffff82111715611824576118236117cd565b5b80604052505050565b600061183761179e565b905061184382826117fc565b919050565b600067ffffffffffffffff821115611863576118626117cd565b5b61186c826117bc565b9050602081019050919050565b82818337600083830152505050565b600061189b61189684611848565b61182d565b9050828152602081018484840111156118b7576118b66117b7565b5b6118c2848285611879565b509392505050565b600082601f8301126118df576118de6117b2565b5b81356118ef848260208601611888565b91505092915050565b6000819050919050565b61190b816118f8565b811461191657600080fd5b50565b60008135905061192881611902565b92915050565b60008060408385031215611945576119446117a8565b5b600083013567ffffffffffffffff811115611963576119626117ad565b5b61196f858286016118ca565b925050602061198085828601611919565b9150509250929050565b6000602082840312156119a05761199f6117a8565b5b60006119ae84828501611919565b91505092915050565b600081519050919050565b600082825260208201905092915050565b6000819050602082019050919050565b600081519050919050565b600082825260208201905092915050565b60005b83811015611a1d578082015181840152602081019050611a02565b83811115611a2c576000848401525b50505050565b6000611a3d826119e3565b611a4781856119ee565b9350611a578185602086016119ff565b611a60816117bc565b840191505092915050565b611a74816118f8565b82525050565b600073ffffffffffffffffffffffffffffffffffffffff82169050919050565b6000611aa582611a7a565b9050919050565b611ab581611a9a565b82525050565b60006080830160008301518482036000860152611ad88282611a32565b9150506020830151611aed6020860182611a6b565b506040830151611b006040860182611aac565b506060830151611b136060860182611a6b565b508091505092915050565b6000611b2a8383611abb565b905092915050565b6000602082019050919050565b6000611b4a826119b7565b611b5481856119c2565b935083602082028501611b66856119d3565b8060005b85811015611ba25784840389528151611b838582611b1e565b9450611b8e83611b32565b925060208a01995050600181019050611b6a565b50829750879550505050505092915050565b60006020820190508181036000830152611bce8184611b3f565b905092915050565b60048110611be357600080fd5b50565b600081359050611bf581611bd6565b92915050565b60008060408385031215611c1257611c116117a8565b5b6000611c2085828601611919565b9250506020611c3185828601611be6565b9150509250929050565b600081519050919050565b600082825260208201905092915050565b6000819050602082019050919050565b60006060830160008301518482036000860152611c848282611a32565b91505060208301518482036020860152611c9e8282611a32565b91505060408301518482036040860152611cb88282611a32565b9150508091505092915050565b6000611cd18383611c67565b905092915050565b6000602082019050919050565b6000611cf182611c3b565b611cfb8185611c46565b935083602082028501611d0d85611c57565b8060005b85811015611d495784840389528151611d2a8582611cc5565b9450611d3583611cd9565b925060208a01995050600181019050611d11565b50829750879550505050505092915050565b60006020820190508181036000830152611d758184611ce6565b905092915050565b600081519050919050565b600082825260208201905092915050565b6000819050602082019050919050565b7f4e487b7100000000000000000000000000000000000000000000000000000000600052602160045260246000fd5b60048110611de957611de8611da9565b5b50565b6000819050611dfa82611dd8565b919050565b6000611e0a82611dec565b9050919050565b611e1a81611dff565b82525050565b60048110611e3157611e30611da9565b5b50565b6000819050611e4282611e20565b919050565b6000611e5282611e34565b9050919050565b611e6281611e47565b82525050565b60038110611e7957611e78611da9565b5b50565b6000819050611e8a82611e68565b919050565b6000611e9a82611e7c565b9050919050565b611eaa81611e8f565b82525050565b600081519050919050565b600082825260208201905092915050565b6000819050602082019050919050565b6000611ee88383611a32565b905092915050565b6000602082019050919050565b6000611f0882611eb0565b611f128185611ebb565b935083602082028501611f2485611ecc565b8060005b85811015611f605784840389528151611f418582611edc565b9450611f4c83611ef0565b925060208a01995050600181019050611f28565b50829750879550505050505092915050565b600061014083016000830151611f8b6000860182611e59565b506020830151611f9e6020860182611e59565b506040830151611fb16040860182611ea1565b5060608301518482036060860152611fc98282611a32565b91505060808301518482036080860152611fe38282611a32565b91505060a0830151611ff860a0860182611a6b565b5060c083015184820360c08601526120108282611a32565b91505060e083015161202560e0860182611a6b565b5061010083015161203a610100860182611a6b565b506101208301518482036101208601526120548282611efd565b9150508091505092915050565b600060a0830160008301516120796000860182611a6b565b50602083015161208c6020860182611aac565b50604083015161209f6040860182611a6b565b5060608301516120b26060860182611e11565b50608083015184820360808601526120ca8282611f72565b9150508091505092915050565b60006120e38383612061565b905092915050565b6000602082019050919050565b600061210382611d7d565b61210d8185611d88565b93508360208202850161211f85611d99565b8060005b8581101561215b578484038952815161213c85826120d7565b9450612147836120eb565b925060208a01995050600181019050612123565b50829750879550505050505092915050565b6000602082019050818103600083015261218781846120f8565b905092915050565b600067ffffffffffffffff8211156121aa576121a96117cd565b5b602082029050602081019050919050565b600080fd5b600080fd5b600080fd5b6000606082840312156121e0576121df6121c0565b5b6121ea606061182d565b9050600082013567ffffffffffffffff81111561220a576122096121c5565b5b612216848285016118ca565b600083015250602082013567ffffffffffffffff81111561223a576122396121c5565b5b612246848285016118ca565b602083015250604082013567ffffffffffffffff81111561226a576122696121c5565b5b612276848285016118ca565b60408301525092915050565b60006122956122908461218f565b61182d565b905080838252602082019050602084028301858111156122b8576122b76121bb565b5b835b818110156122ff57803567ffffffffffffffff8111156122dd576122dc6117b2565b5b8086016122ea89826121ca565b855260208501945050506020810190506122ba565b5050509392505050565b600082601f83011261231e5761231d6117b2565b5b813561232e848260208601612282565b91505092915050565b6004811061234457600080fd5b50565b60008135905061235681612337565b92915050565b6003811061236957600080fd5b50565b60008135905061237b8161235c565b92915050565b600067ffffffffffffffff82111561239c5761239b6117cd565b5b602082029050602081019050919050565b60006123c06123bb84612381565b61182d565b905080838252602082019050602084028301858111156123e3576123e26121bb565b5b835b8181101561242a57803567ffffffffffffffff811115612408576124076117b2565b5b80860161241589826118ca565b855260208501945050506020810190506123e5565b5050509392505050565b600082601f830112612449576124486117b2565b5b81356124598482602086016123ad565b91505092915050565b60006101408284031215612479576124786121c0565b5b61248461014061182d565b9050600061249484828501612347565b60008301525060206124a884828501612347565b60208301525060406124bc8482850161236c565b604083015250606082013567ffffffffffffffff8111156124e0576124df6121c5565b5b6124ec848285016118ca565b606083015250608082013567ffffffffffffffff8111156125105761250f6121c5565b5b61251c848285016118ca565b60808301525060a061253084828501611919565b60a08301525060c082013567ffffffffffffffff811115612554576125536121c5565b5b612560848285016118ca565b60c08301525060e061257484828501611919565b60e08301525061010061258984828501611919565b6101008301525061012082013567ffffffffffffffff8111156125af576125ae6121c5565b5b6125bb84828501612434565b6101208301525092915050565b600080604083850312156125df576125de6117a8565b5b600083013567ffffffffffffffff8111156125fd576125fc6117ad565b5b61260985828601612309565b925050602083013567ffffffffffffffff81111561262a576126296117ad565b5b61263685828601612462565b9150509250929050565b612649816118f8565b82525050565b61265881611a9a565b82525050565b61266781611dff565b82525050565b6000610140830160008301516126866000860182611e59565b5060208301516126996020860182611e59565b5060408301516126ac6040860182611ea1565b50606083015184820360608601526126c48282611a32565b915050608083015184820360808601526126de8282611a32565b91505060a08301516126f360a0860182611a6b565b5060c083015184820360c086015261270b8282611a32565b91505060e083015161272060e0860182611a6b565b50610100830151612735610100860182611a6b565b5061012083015184820361012086015261274f8282611efd565b9150508091505092915050565b600060a0820190506127716000830188612640565b61277e602083018761264f565b61278b6040830186612640565b612798606083018561265e565b81810360808301526127aa818461266d565b90509695505050505050565b600080604083850312156127cd576127cc6117a8565b5b60006127db85828601611919565b92505060206127ec85828601611919565b9150509250929050565b600082825260208201905092915050565b6000612812826119e3565b61281c81856127f6565b935061282c8185602086016119ff565b612835816117bc565b840191505092915050565b6000606082019050818103600083015261285a8186612807565b9050818103602083015261286e8185612807565b905081810360408301526128828184612807565b9050949350505050565b600060808201905081810360008301526128a68187612807565b90506128b56020830186612640565b6128c2604083018561264f565b6128cf6060830184612640565b95945050505050565b7f4e487b7100000000000000000000000000000000000000000000000000000000600052602260045260246000fd5b6000600282049050600182168061291f57607f821691505b60208210811415612933576129326128d8565b5b50919050565b7f4e487b7100000000000000000000000000000000000000000000000000000000600052603260045260246000fd5b7f596f752063616e6e6f7420636c6f736520746869732072657175657374000000600082015250565b600061299e601d836127f6565b91506129a982612968565b602082019050919050565b600060208201905081810360008301526129cd81612991565b9050919050565b60006040820190506129e96000830185612640565b6129f6602083018461265e565b9392505050565b7f4e487b7100000000000000000000000000000000000000000000000000000000600052601160045260246000fd5b6000612a37826118f8565b91507fffffffffffffffffffffffffffffffffffffffffffffffffffffffffffffffff821415612a6a57612a696129fd565b5b60018201905091905056fea26469706673582212204b099456ac802d5246a22319576238631b734168e4d6c235f04754d02c6b1adf64736f6c63430008090033",
  "linkReferences": {},
  "deployedLinkReferences": {}
}