{
  "_format": "hh-sol-artifact-1",
  "contractName": "MissingPeople",
  "sourceName": "contracts/MissingPeople.sol",
  "abi": [
    {
      "inputs": [],
      "stateMutability": "nonpayable",
      "type": "constructor"
    },
    {
      "anonymous": false,
      "inputs": [
        {
          "indexed": false,
          "internalType": "uint256",
          "name": "date",
          "type": "uint256"
        },
        {
          "indexed": false,
          "internalType": "enum MissingPeople.Resolution",
          "name": "resolution",
          "type": "uint8"
        }
      ],
      "name": "CaseClosed",
      "type": "event"
    },
    {
      "anonymous": false,
      "inputs": [],
      "name": "CaseFollowup",
      "type": "event"
    },
    {
      "anonymous": false,
      "inputs": [
        {
          "indexed": true,
          "internalType": "bytes32",
          "name": "id",
          "type": "bytes32"
        }
      ],
      "name": "ChainlinkCancelled",
      "type": "event"
    },
    {
      "anonymous": false,
      "inputs": [
        {
          "indexed": true,
          "internalType": "bytes32",
          "name": "id",
          "type": "bytes32"
        }
      ],
      "name": "ChainlinkFulfilled",
      "type": "event"
    },
    {
      "anonymous": false,
      "inputs": [
        {
          "indexed": true,
          "internalType": "bytes32",
          "name": "id",
          "type": "bytes32"
        }
      ],
      "name": "ChainlinkRequested",
      "type": "event"
    },
    {
      "inputs": [
        {
          "internalType": "uint256",
          "name": "id",
          "type": "uint256"
        },
        {
          "internalType": "enum MissingPeople.Resolution",
          "name": "resolution",
          "type": "uint8"
        }
      ],
      "name": "closeCase",
      "outputs": [],
      "stateMutability": "nonpayable",
      "type": "function"
    },
    {
      "inputs": [
        {
          "internalType": "string",
          "name": "description",
          "type": "string"
        },
        {
          "internalType": "uint256",
          "name": "id",
          "type": "uint256"
        }
      ],
      "name": "createFollowup",
      "outputs": [],
      "stateMutability": "nonpayable",
      "type": "function"
    },
    {
      "inputs": [
        {
          "components": [
            {
              "internalType": "string",
              "name": "lat",
              "type": "string"
            },
            {
              "internalType": "string",
              "name": "lng",
              "type": "string"
            },
            {
              "internalType": "string",
              "name": "radius",
              "type": "string"
            }
          ],
          "internalType": "struct MissingPeople.Coordinates[]",
          "name": "location",
          "type": "tuple[]"
        },
        {
          "components": [
            {
              "internalType": "enum MissingPeople.CommonColors",
              "name": "eyes",
              "type": "uint8"
            },
            {
              "internalType": "enum MissingPeople.CommonColors",
              "name": "hair",
              "type": "uint8"
            },
            {
              "internalType": "enum MissingPeople.Genre",
              "name": "genre",
              "type": "uint8"
            },
            {
              "internalType": "string",
              "name": "remarks",
              "type": "string"
            },
            {
              "internalType": "string",
              "name": "name",
              "type": "string"
            },
            {
              "internalType": "uint256",
              "name": "birthDate",
              "type": "uint256"
            },
            {
              "internalType": "string",
              "name": "nationality",
              "type": "string"
            },
            {
              "internalType": "uint256",
              "name": "weight",
              "type": "uint256"
            },
            {
              "internalType": "uint256",
              "name": "height",
              "type": "uint256"
            },
            {
              "internalType": "string[]",
              "name": "images",
              "type": "string[]"
            }
          ],
          "internalType": "struct MissingPeople.Person",
          "name": "missingPerson",
          "type": "tuple"
        }
      ],
      "name": "createReport",
      "outputs": [],
      "stateMutability": "nonpayable",
      "type": "function"
    },
    {
      "inputs": [
        {
          "internalType": "uint256",
          "name": "",
          "type": "uint256"
        }
      ],
      "name": "crimeReports",
      "outputs": [
        {
          "internalType": "uint256",
          "name": "id",
          "type": "uint256"
        },
        {
          "internalType": "address",
          "name": "reporter",
          "type": "address"
        },
        {
          "internalType": "uint256",
          "name": "created",
          "type": "uint256"
        },
        {
          "internalType": "enum MissingPeople.Resolution",
          "name": "resolution",
          "type": "uint8"
        },
        {
          "components": [
            {
              "internalType": "enum MissingPeople.CommonColors",
              "name": "eyes",
              "type": "uint8"
            },
            {
              "internalType": "enum MissingPeople.CommonColors",
              "name": "hair",
              "type": "uint8"
            },
            {
              "internalType": "enum MissingPeople.Genre",
              "name": "genre",
              "type": "uint8"
            },
            {
              "internalType": "string",
              "name": "remarks",
              "type": "string"
            },
            {
              "internalType": "string",
              "name": "name",
              "type": "string"
            },
            {
              "internalType": "uint256",
              "name": "birthDate",
              "type": "uint256"
            },
            {
              "internalType": "string",
              "name": "nationality",
              "type": "string"
            },
            {
              "internalType": "uint256",
              "name": "weight",
              "type": "uint256"
            },
            {
              "internalType": "uint256",
              "name": "height",
              "type": "uint256"
            },
            {
              "internalType": "string[]",
              "name": "images",
              "type": "string[]"
            }
          ],
          "internalType": "struct MissingPeople.Person",
          "name": "missingPerson",
          "type": "tuple"
        }
      ],
      "stateMutability": "view",
      "type": "function"
    },
    {
      "inputs": [
        {
          "internalType": "uint256",
          "name": "",
          "type": "uint256"
        },
        {
          "internalType": "uint256",
          "name": "",
          "type": "uint256"
        }
      ],
      "name": "followUpReports",
      "outputs": [
        {
          "internalType": "string",
          "name": "description",
          "type": "string"
        },
        {
          "internalType": "uint256",
          "name": "created",
          "type": "uint256"
        },
        {
          "internalType": "address",
          "name": "reporter",
          "type": "address"
        },
        {
          "internalType": "uint256",
          "name": "report",
          "type": "uint256"
        },
        {
          "internalType": "bool",
          "name": "paid",
          "type": "bool"
        }
      ],
      "stateMutability": "view",
      "type": "function"
    },
    {
      "inputs": [
        {
          "internalType": "bytes32",
          "name": "_requestId",
          "type": "bytes32"
        },
        {
          "internalType": "uint256",
          "name": "_price",
          "type": "uint256"
        }
      ],
      "name": "fulfill",
      "outputs": [],
      "stateMutability": "nonpayable",
      "type": "function"
    },
    {
      "inputs": [
        {
          "internalType": "uint256",
          "name": "id",
          "type": "uint256"
        }
      ],
      "name": "getAllReportCoordinates",
      "outputs": [
        {
          "components": [
            {
              "internalType": "string",
              "name": "lat",
              "type": "string"
            },
            {
              "internalType": "string",
              "name": "lng",
              "type": "string"
            },
            {
              "internalType": "string",
              "name": "radius",
              "type": "string"
            }
          ],
          "internalType": "struct MissingPeople.Coordinates[]",
          "name": "",
          "type": "tuple[]"
        }
      ],
      "stateMutability": "view",
      "type": "function"
    },
    {
      "inputs": [],
      "name": "getCrimeReports",
      "outputs": [
        {
          "components": [
            {
              "internalType": "uint256",
              "name": "id",
              "type": "uint256"
            },
            {
              "internalType": "address",
              "name": "reporter",
              "type": "address"
            },
            {
              "internalType": "uint256",
              "name": "created",
              "type": "uint256"
            },
            {
              "internalType": "enum MissingPeople.Resolution",
              "name": "resolution",
              "type": "uint8"
            },
            {
              "components": [
                {
                  "internalType": "enum MissingPeople.CommonColors",
                  "name": "eyes",
                  "type": "uint8"
                },
                {
                  "internalType": "enum MissingPeople.CommonColors",
                  "name": "hair",
                  "type": "uint8"
                },
                {
                  "internalType": "enum MissingPeople.Genre",
                  "name": "genre",
                  "type": "uint8"
                },
                {
                  "internalType": "string",
                  "name": "remarks",
                  "type": "string"
                },
                {
                  "internalType": "string",
                  "name": "name",
                  "type": "string"
                },
                {
                  "internalType": "uint256",
                  "name": "birthDate",
                  "type": "uint256"
                },
                {
                  "internalType": "string",
                  "name": "nationality",
                  "type": "string"
                },
                {
                  "internalType": "uint256",
                  "name": "weight",
                  "type": "uint256"
                },
                {
                  "internalType": "uint256",
                  "name": "height",
                  "type": "uint256"
                },
                {
                  "internalType": "string[]",
                  "name": "images",
                  "type": "string[]"
                }
              ],
              "internalType": "struct MissingPeople.Person",
              "name": "missingPerson",
              "type": "tuple"
            }
          ],
          "internalType": "struct MissingPeople.Report[]",
          "name": "",
          "type": "tuple[]"
        }
      ],
      "stateMutability": "view",
      "type": "function"
    },
    {
      "inputs": [
        {
          "internalType": "uint256",
          "name": "reportId",
          "type": "uint256"
        }
      ],
      "name": "getFollowupReports",
      "outputs": [
        {
          "components": [
            {
              "internalType": "string",
              "name": "description",
              "type": "string"
            },
            {
              "internalType": "uint256",
              "name": "created",
              "type": "uint256"
            },
            {
              "internalType": "address",
              "name": "reporter",
              "type": "address"
            },
            {
              "internalType": "uint256",
              "name": "report",
              "type": "uint256"
            },
            {
              "internalType": "bool",
              "name": "paid",
              "type": "bool"
            }
          ],
          "internalType": "struct MissingPeople.FollowUpReport[]",
          "name": "",
          "type": "tuple[]"
        }
      ],
      "stateMutability": "view",
      "type": "function"
    },
    {
      "inputs": [],
      "name": "linkPrice",
      "outputs": [
        {
          "internalType": "uint256",
          "name": "",
          "type": "uint256"
        }
      ],
      "stateMutability": "view",
      "type": "function"
    },
    {
      "inputs": [
        {
          "internalType": "uint256",
          "name": "",
          "type": "uint256"
        },
        {
          "internalType": "uint256",
          "name": "",
          "type": "uint256"
        }
      ],
      "name": "reportCoordinates",
      "outputs": [
        {
          "internalType": "string",
          "name": "lat",
          "type": "string"
        },
        {
          "internalType": "string",
          "name": "lng",
          "type": "string"
        },
        {
          "internalType": "string",
          "name": "radius",
          "type": "string"
        }
      ],
      "stateMutability": "view",
      "type": "function"
    },
    {
      "inputs": [],
      "name": "requestTokenPrice",
      "outputs": [
        {
          "internalType": "bytes32",
          "name": "requestId",
          "type": "bytes32"
        }
      ],
      "stateMutability": "nonpayable",
      "type": "function"
    },
    {
      "inputs": [
        {
          "internalType": "uint256",
          "name": "report",
          "type": "uint256"
        },
        {
          "internalType": "uint256",
          "name": "id",
          "type": "uint256"
        }
      ],
      "name": "sendReward",
      "outputs": [],
      "stateMutability": "nonpayable",
      "type": "function"
    },
    {
      "inputs": [
        {
          "internalType": "address",
          "name": "to",
          "type": "address"
        },
        {
          "internalType": "uint256",
          "name": "amount",
          "type": "uint256"
        }
      ],
      "name": "sendToken",
      "outputs": [],
      "stateMutability": "nonpayable",
      "type": "function"
    },
    {
      "stateMutability": "payable",
      "type": "receive"
    }
  ],
  "bytecode": "0x6080604052600160045573326c977e6efc84e512bb9c30f76e30c160ed06fb600660006101000a81548173ffffffffffffffffffffffffffffffffffffffff021916908373ffffffffffffffffffffffffffffffffffffffff1602179055503480156200006b57600080fd5b50600073326c977e6efc84e512bb9c30f76e30c160ed06fb905062000096816200012860201b60201c565b7f63613938333636636337333134393537623863303132633732663035616565626009819055507340193c8518bb267228fc409a613bdbd8ec5a97b3600860006101000a81548173ffffffffffffffffffffffffffffffffffffffff021916908373ffffffffffffffffffffffffffffffffffffffff16021790555067016345785d8a0000600a81905550506200016c565b80600260006101000a81548173ffffffffffffffffffffffffffffffffffffffff021916908373ffffffffffffffffffffffffffffffffffffffff16021790555050565b614463806200017c6000396000f3fe6080604052600436106100e15760003560e01c80634357855e1161007f5780637f40af8d116100595780637f40af8d146102b5578063aff058fc146102de578063c91dc8881461031f578063df361fcb1461035e576100e8565b80634357855e146102385780635e7725a31461026157806376d438b01461028c576100e8565b8063266a74c1116100bb578063266a74c11461017e5780632d219090146101a7578063412664ae146101e457806341e4a02f1461020d576100e8565b806301db185c146100ed5780630cf7853514610116578063244034be14610141576100e8565b366100e857005b600080fd5b3480156100f957600080fd5b50610114600480360381019061010f91906129f5565b61039f565b005b34801561012257600080fd5b5061012b6104f4565b6040516101389190612a60565b60405180910390f35b34801561014d57600080fd5b5061016860048036038101906101639190612a7b565b6104fa565b6040516101759190612cd3565b60405180910390f35b34801561018a57600080fd5b506101a560048036038101906101a09190612d1a565b610683565b005b3480156101b357600080fd5b506101ce60048036038101906101c99190612a7b565b6107c0565b6040516101db9190612e7a565b60405180910390f35b3480156101f057600080fd5b5061020b60048036038101906102069190612ec8565b6109e8565b005b34801561021957600080fd5b50610222610a9c565b60405161022f9190612f21565b60405180910390f35b34801561024457600080fd5b5061025f600480360381019061025a9190612f68565b610c16565b005b34801561026d57600080fd5b50610276610d27565b6040516102839190613398565b60405180910390f35b34801561029857600080fd5b506102b360048036038101906102ae91906133ba565b61119e565b005b3480156102c157600080fd5b506102dc60048036038101906102d79190613833565b6112c3565b005b3480156102ea57600080fd5b5061030560048036038101906103009190612a7b565b6115dc565b6040516103169594939291906139b8565b60405180910390f35b34801561032b57600080fd5b50610346600480360381019061034191906133ba565b6119b8565b60405161035593929190613a5c565b60405180910390f35b34801561036a57600080fd5b50610385600480360381019061038091906133ba565b611b97565b604051610396959493929190613ab7565b60405180910390f35b60006040518060a001604052808481526020014281526020013373ffffffffffffffffffffffffffffffffffffffff168152602001838152602001600015158152509050600c6000838152602001908152602001600020819080600181540180825580915050600190039060005260206000209060050201600090919091909150600082015181600001908051906020019061043c929190612677565b506020820151816001015560408201518160020160006101000a81548173ffffffffffffffffffffffffffffffffffffffff021916908373ffffffffffffffffffffffffffffffffffffffff1602179055506060820151816003015560808201518160040160006101000a81548160ff02191690831515021790555050506104c2610a9c565b507f27bc565353ac33dadbafeccf6130a5665f824f9384610858ec18bc2e91e95d6a60405160405180910390a1505050565b60075481565b6060600c6000838152602001908152602001600020805480602002602001604051908101604052809291908181526020016000905b8282101561067857838290600052602060002090600502016040518060a001604052908160008201805461056290613b40565b80601f016020809104026020016040519081016040528092919081815260200182805461058e90613b40565b80156105db5780601f106105b0576101008083540402835291602001916105db565b820191906000526020600020905b8154815290600101906020018083116105be57829003601f168201915b50505050508152602001600182015481526020016002820160009054906101000a900473ffffffffffffffffffffffffffffffffffffffff1673ffffffffffffffffffffffffffffffffffffffff1673ffffffffffffffffffffffffffffffffffffffff168152602001600382015481526020016004820160009054906101000a900460ff1615151515815250508152602001906001019061052f565b505050509050919050565b600d828154811061069757610696613b72565b5b90600052602060002090600c020160010160009054906101000a900473ffffffffffffffffffffffffffffffffffffffff1673ffffffffffffffffffffffffffffffffffffffff163373ffffffffffffffffffffffffffffffffffffffff1614610736576040517f08c379a000000000000000000000000000000000000000000000000000000000815260040161072d90613bed565b60405180910390fd5b80600d838154811061074b5761074a613b72565b5b90600052602060002090600c020160030160006101000a81548160ff0219169083600381111561077e5761077d612fd4565b5b02179055507fd0adc5d52a4f2aa7bdf368911ade812c5e1b64b60ae689c36fe9ba6058941dda42826040516107b4929190613c0d565b60405180910390a15050565b6060600b6000838152602001908152602001600020805480602002602001604051908101604052809291908181526020016000905b828210156109dd578382906000526020600020906003020160405180606001604052908160008201805461082890613b40565b80601f016020809104026020016040519081016040528092919081815260200182805461085490613b40565b80156108a15780601f10610876576101008083540402835291602001916108a1565b820191906000526020600020905b81548152906001019060200180831161088457829003601f168201915b505050505081526020016001820180546108ba90613b40565b80601f01602080910402602001604051908101604052809291908181526020018280546108e690613b40565b80156109335780601f1061090857610100808354040283529160200191610933565b820191906000526020600020905b81548152906001019060200180831161091657829003601f168201915b5050505050815260200160028201805461094c90613b40565b80601f016020809104026020016040519081016040528092919081815260200182805461097890613b40565b80156109c55780601f1061099a576101008083540402835291602001916109c5565b820191906000526020600020905b8154815290600101906020018083116109a857829003601f168201915b505050505081525050815260200190600101906107f5565b505050509050919050565b600660009054906101000a900473ffffffffffffffffffffffffffffffffffffffff1673ffffffffffffffffffffffffffffffffffffffff1663a9059cbb83836040518363ffffffff1660e01b8152600401610a45929190613c36565b602060405180830381600087803b158015610a5f57600080fd5b505af1158015610a73573d6000803e3d6000fd5b505050506040513d601f19601f82011682018060405250810190610a979190613c8b565b505050565b600080610ab360095430634357855e60e01b611c9f565b9050610b176040518060400160405280600381526020017f67657400000000000000000000000000000000000000000000000000000000008152506040518060800160405280604181526020016143ed6041913983611cd09092919063ffffffff16565b610b966040518060400160405280600481526020017f70617468000000000000000000000000000000000000000000000000000000008152506040518060400160405280600381526020017f555344000000000000000000000000000000000000000000000000000000000081525083611cd09092919063ffffffff16565b610be16040518060400160405280600581526020017f74696d6573000000000000000000000000000000000000000000000000000000815250606483611d039092919063ffffffff16565b610c10600860009054906101000a900473ffffffffffffffffffffffffffffffffffffffff1682600a54611d36565b91505090565b816005600082815260200190815260200160002060009054906101000a900473ffffffffffffffffffffffffffffffffffffffff1673ffffffffffffffffffffffffffffffffffffffff163373ffffffffffffffffffffffffffffffffffffffff1614610cb8576040517f08c379a0000000000000000000000000000000000000000000000000000000008152600401610caf90613d2a565b60405180910390fd5b6005600082815260200190815260200160002060006101000a81549073ffffffffffffffffffffffffffffffffffffffff0219169055807f7cc135e0cebb02c3480ae5d74d377283180a2601f8f644edf7987b009316c63a60405160405180910390a281600781905550505050565b6060600d805480602002602001604051908101604052809291908181526020016000905b8282101561119557838290600052602060002090600c02016040518060a0016040529081600082015481526020016001820160009054906101000a900473ffffffffffffffffffffffffffffffffffffffff1673ffffffffffffffffffffffffffffffffffffffff1673ffffffffffffffffffffffffffffffffffffffff168152602001600282015481526020016003820160009054906101000a900460ff166003811115610dfd57610dfc612fd4565b5b6003811115610e0f57610e0e612fd4565b5b815260200160048201604051806101400160405290816000820160009054906101000a900460ff166003811115610e4957610e48612fd4565b5b6003811115610e5b57610e5a612fd4565b5b81526020016000820160019054906101000a900460ff166003811115610e8457610e83612fd4565b5b6003811115610e9657610e95612fd4565b5b81526020016000820160029054906101000a900460ff166002811115610ebf57610ebe612fd4565b5b6002811115610ed157610ed0612fd4565b5b8152602001600182018054610ee590613b40565b80601f0160208091040260200160405190810160405280929190818152602001828054610f1190613b40565b8015610f5e5780601f10610f3357610100808354040283529160200191610f5e565b820191906000526020600020905b815481529060010190602001808311610f4157829003601f168201915b50505050508152602001600282018054610f7790613b40565b80601f0160208091040260200160405190810160405280929190818152602001828054610fa390613b40565b8015610ff05780601f10610fc557610100808354040283529160200191610ff0565b820191906000526020600020905b815481529060010190602001808311610fd357829003601f168201915b505050505081526020016003820154815260200160048201805461101390613b40565b80601f016020809104026020016040519081016040528092919081815260200182805461103f90613b40565b801561108c5780601f106110615761010080835404028352916020019161108c565b820191906000526020600020905b81548152906001019060200180831161106f57829003601f168201915b50505050508152602001600582015481526020016006820154815260200160078201805480602002602001604051908101604052809291908181526020016000905b8282101561117a5783829060005260206000200180546110ed90613b40565b80601f016020809104026020016040519081016040528092919081815260200182805461111990613b40565b80156111665780601f1061113b57610100808354040283529160200191611166565b820191906000526020600020905b81548152906001019060200180831161114957829003601f168201915b5050505050815260200190600101906110ce565b50505050815250508152505081526020019060010190610d4b565b50505050905090565b6001600c600084815260200190815260200160002082815481106111c5576111c4613b72565b5b906000526020600020906005020160040160006101000a81548160ff02191690831515021790555060146007541161125d57611258600c6000848152602001908152602001600020828154811061121f5761121e613b72565b5b906000526020600020906005020160020160009054906101000a900473ffffffffffffffffffffffffffffffffffffffff1660016109e8565b6112bf565b6112be600c6000848152602001908152602001600020828154811061128557611284613b72565b5b906000526020600020906005020160020160009054906101000a900473ffffffffffffffffffffffffffffffffffffffff1660026109e8565b5b5050565b60006040518060a00160405280600d8054905081526020013373ffffffffffffffffffffffffffffffffffffffff1681526020014281526020016003808111156113105761130f612fd4565b5b8152602001838152509050600d8190806001815401808255809150506001900390600052602060002090600c02016000909190919091506000820151816000015560208201518160010160006101000a81548173ffffffffffffffffffffffffffffffffffffffff021916908373ffffffffffffffffffffffffffffffffffffffff1602179055506040820151816002015560608201518160030160006101000a81548160ff021916908360038111156113cd576113cc612fd4565b5b021790555060808201518160040160008201518160000160006101000a81548160ff0219169083600381111561140657611405612fd4565b5b021790555060208201518160000160016101000a81548160ff0219169083600381111561143657611435612fd4565b5b021790555060408201518160000160026101000a81548160ff0219169083600281111561146657611465612fd4565b5b02179055506060820151816001019080519060200190611487929190612677565b5060808201518160020190805190602001906114a4929190612677565b5060a0820151816003015560c08201518160040190805190602001906114cb929190612677565b5060e0820151816005015561010082015181600601556101208201518160070190805190602001906114fe9291906126fd565b505050505060005b83518110156115d657600b60008360000151815260200190815260200160002084828151811061153957611538613b72565b5b602002602001015190806001815401808255809150506001900390600052602060002090600302016000909190919091506000820151816000019080519060200190611586929190612677565b5060208201518160010190805190602001906115a3929190612677565b5060408201518160020190805190602001906115c0929190612677565b50505080806115ce90613d79565b915050611506565b50505050565b600d81815481106115ec57600080fd5b90600052602060002090600c02016000915090508060000154908060010160009054906101000a900473ffffffffffffffffffffffffffffffffffffffff16908060020154908060030160009054906101000a900460ff169080600401604051806101400160405290816000820160009054906101000a900460ff16600381111561167a57611679612fd4565b5b600381111561168c5761168b612fd4565b5b81526020016000820160019054906101000a900460ff1660038111156116b5576116b4612fd4565b5b60038111156116c7576116c6612fd4565b5b81526020016000820160029054906101000a900460ff1660028111156116f0576116ef612fd4565b5b600281111561170257611701612fd4565b5b815260200160018201805461171690613b40565b80601f016020809104026020016040519081016040528092919081815260200182805461174290613b40565b801561178f5780601f106117645761010080835404028352916020019161178f565b820191906000526020600020905b81548152906001019060200180831161177257829003601f168201915b505050505081526020016002820180546117a890613b40565b80601f01602080910402602001604051908101604052809291908181526020018280546117d490613b40565b80156118215780601f106117f657610100808354040283529160200191611821565b820191906000526020600020905b81548152906001019060200180831161180457829003601f168201915b505050505081526020016003820154815260200160048201805461184490613b40565b80601f016020809104026020016040519081016040528092919081815260200182805461187090613b40565b80156118bd5780601f10611892576101008083540402835291602001916118bd565b820191906000526020600020905b8154815290600101906020018083116118a057829003601f168201915b50505050508152602001600582015481526020016006820154815260200160078201805480602002602001604051908101604052809291908181526020016000905b828210156119ab57838290600052602060002001805461191e90613b40565b80601f016020809104026020016040519081016040528092919081815260200182805461194a90613b40565b80156119975780601f1061196c57610100808354040283529160200191611997565b820191906000526020600020905b81548152906001019060200180831161197a57829003601f168201915b5050505050815260200190600101906118ff565b5050505081525050905085565b600b60205281600052604060002081815481106119d457600080fd5b9060005260206000209060030201600091509150508060000180546119f890613b40565b80601f0160208091040260200160405190810160405280929190818152602001828054611a2490613b40565b8015611a715780601f10611a4657610100808354040283529160200191611a71565b820191906000526020600020905b815481529060010190602001808311611a5457829003601f168201915b505050505090806001018054611a8690613b40565b80601f0160208091040260200160405190810160405280929190818152602001828054611ab290613b40565b8015611aff5780601f10611ad457610100808354040283529160200191611aff565b820191906000526020600020905b815481529060010190602001808311611ae257829003601f168201915b505050505090806002018054611b1490613b40565b80601f0160208091040260200160405190810160405280929190818152602001828054611b4090613b40565b8015611b8d5780601f10611b6257610100808354040283529160200191611b8d565b820191906000526020600020905b815481529060010190602001808311611b7057829003601f168201915b5050505050905083565b600c6020528160005260406000208181548110611bb357600080fd5b906000526020600020906005020160009150915050806000018054611bd790613b40565b80601f0160208091040260200160405190810160405280929190818152602001828054611c0390613b40565b8015611c505780601f10611c2557610100808354040283529160200191611c50565b820191906000526020600020905b815481529060010190602001808311611c3357829003601f168201915b5050505050908060010154908060020160009054906101000a900473ffffffffffffffffffffffffffffffffffffffff16908060030154908060040160009054906101000a900460ff16905085565b611ca761275d565b611caf61275d565b611cc685858584611e02909392919063ffffffff16565b9150509392505050565b611ce7828460800151611eb290919063ffffffff16565b611cfe818460800151611eb290919063ffffffff16565b505050565b611d1a828460800151611eb290919063ffffffff16565b611d31818460800151611ed790919063ffffffff16565b505050565b6000806004549050600181611d4b9190613dc2565b6004819055506000634042994660e01b60008087600001513089604001518760018c6080015160000151604051602401611d8c989796959493929190613ea8565b604051602081830303815290604052907bffffffffffffffffffffffffffffffffffffffffffffffffffffffff19166020820180517bffffffffffffffffffffffffffffffffffffffffffffffffffffffff83818316178352505050509050611df786838684611f84565b925050509392505050565b611e0a61275d565b611e1a8560800151610100612128565b508385600001818152505082856020019073ffffffffffffffffffffffffffffffffffffffff16908173ffffffffffffffffffffffffffffffffffffffff16815250508185604001907bffffffffffffffffffffffffffffffffffffffffffffffffffffffff191690817bffffffffffffffffffffffffffffffffffffffffffffffffffffffff191681525050849050949350505050565b611ebf8260038351612192565b611ed2818361231790919063ffffffff16565b505050565b7fffffffffffffffffffffffffffffffffffffffffffffffff0000000000000000811215611f0e57611f098282612339565b611f80565b67ffffffffffffffff811315611f2d57611f2882826123b0565b611f7f565b60008112611f4657611f4182600083612192565b611f7e565b611f7d826001837fffffffffffffffffffffffffffffffffffffffffffffffffffffffffffffffff611f789190613f37565b612192565b5b5b5b5050565b60003084604051602001611f99929190614084565b604051602081830303815290604052805190602001209050846005600083815260200190815260200160002060006101000a81548173ffffffffffffffffffffffffffffffffffffffff021916908373ffffffffffffffffffffffffffffffffffffffff160217905550807fb5e6e01e79f91267dc17b4e6314d5d4d03593d2ceee0fbb452b750bd70ea5af960405160405180910390a2600260009054906101000a900473ffffffffffffffffffffffffffffffffffffffff1673ffffffffffffffffffffffffffffffffffffffff16634000aea08685856040518463ffffffff1660e01b815260040161208f939291906140b0565b602060405180830381600087803b1580156120a957600080fd5b505af11580156120bd573d6000803e3d6000fd5b505050506040513d601f19601f820116820180604052508101906120e19190613c8b565b612120576040517f08c379a000000000000000000000000000000000000000000000000000000000815260040161211790614160565b60405180910390fd5b949350505050565b6121306127ca565b600060208361213f91906141af565b1461216b5760208261215191906141af565b602061215d91906141e0565b826121689190613dc2565b91505b81836020018181525050604051808452600081528281016020016040525082905092915050565b60178167ffffffffffffffff16116121c9576121c38160058460ff16901b60ff1617846123fc90919063ffffffff16565b50612312565b60ff8167ffffffffffffffff161161221f576121f8601860058460ff16901b17846123fc90919063ffffffff16565b506122198167ffffffffffffffff1660018561241c9092919063ffffffff16565b50612311565b61ffff8167ffffffffffffffff16116122765761224f601960058460ff16901b17846123fc90919063ffffffff16565b506122708167ffffffffffffffff1660028561241c9092919063ffffffff16565b50612310565b63ffffffff8167ffffffffffffffff16116122cf576122a8601a60058460ff16901b17846123fc90919063ffffffff16565b506122c98167ffffffffffffffff1660048561241c9092919063ffffffff16565b5061230f565b6122ec601b60058460ff16901b17846123fc90919063ffffffff16565b5061230d8167ffffffffffffffff1660088561241c9092919063ffffffff16565b505b5b5b5b505050565b61231f6127ca565b6123318384600001515184855161243e565b905092915050565b61235760036005600660ff16901b17836123fc90919063ffffffff16565b506123ac82827fffffffffffffffffffffffffffffffffffffffffffffffffffffffffffffffff6123889190613f37565b6040516020016123989190612a60565b60405160208183030381529060405261252d565b5050565b6123ce60026005600660ff16901b17836123fc90919063ffffffff16565b506123f882826040516020016123e49190612a60565b60405160208183030381529060405261252d565b5050565b6124046127ca565b6124148384600001515184612552565b905092915050565b6124246127ca565b6124358485600001515185856125a9565b90509392505050565b6124466127ca565b825182111561245457600080fd5b846020015182856124659190613dc2565b111561249a5761249985600261248a886020015188876124859190613dc2565b612637565b6124949190614214565b612653565b5b6000808651805187602083010193508088870111156124b95787860182525b60208701925050505b6020841061250057805182526020826124db9190613dc2565b91506020816124ea9190613dc2565b90506020846124f991906141e0565b93506124c2565b60006001856020036101000a03905080198251168184511681811785525050508692505050949350505050565b61253a8260028351612192565b61254d818361231790919063ffffffff16565b505050565b61255a6127ca565b836020015183106125805761257f846002866020015161257a9190614214565b612653565b5b835180516020858301018481538186141561259c576001820183525b5050508390509392505050565b6125b16127ca565b846020015184836125c29190613dc2565b11156125ea576125e985600286856125da9190613dc2565b6125e49190614214565b612653565b5b60006001836101006125fc91906143a1565b61260691906141e0565b905085518386820101858319825116178152815185880111156126295784870182525b505085915050949350505050565b6000818311156126495782905061264d565b8190505b92915050565b6000826000015190506126668383612128565b506126718382612317565b50505050565b82805461268390613b40565b90600052602060002090601f0160209004810192826126a557600085556126ec565b82601f106126be57805160ff19168380011785556126ec565b828001600101855582156126ec579182015b828111156126eb5782518255916020019190600101906126d0565b5b5090506126f991906127e4565b5090565b82805482825590600052602060002090810192821561274c579160200282015b8281111561274b57825182908051906020019061273b929190612677565b509160200191906001019061271d565b5b5090506127599190612801565b5090565b6040518060a0016040528060008019168152602001600073ffffffffffffffffffffffffffffffffffffffff16815260200160007bffffffffffffffffffffffffffffffffffffffffffffffffffffffff19168152602001600081526020016127c46127ca565b81525090565b604051806040016040528060608152602001600081525090565b5b808211156127fd5760008160009055506001016127e5565b5090565b5b8082111561282157600081816128189190612825565b50600101612802565b5090565b50805461283190613b40565b6000825580601f106128435750612862565b601f01602090049060005260206000209081019061286191906127e4565b5b50565b6000604051905090565b600080fd5b600080fd5b600080fd5b600080fd5b6000601f19601f8301169050919050565b7f4e487b7100000000000000000000000000000000000000000000000000000000600052604160045260246000fd5b6128cc82612883565b810181811067ffffffffffffffff821117156128eb576128ea612894565b5b80604052505050565b60006128fe612865565b905061290a82826128c3565b919050565b600067ffffffffffffffff82111561292a57612929612894565b5b61293382612883565b9050602081019050919050565b82818337600083830152505050565b600061296261295d8461290f565b6128f4565b90508281526020810184848401111561297e5761297d61287e565b5b612989848285612940565b509392505050565b600082601f8301126129a6576129a5612879565b5b81356129b684826020860161294f565b91505092915050565b6000819050919050565b6129d2816129bf565b81146129dd57600080fd5b50565b6000813590506129ef816129c9565b92915050565b60008060408385031215612a0c57612a0b61286f565b5b600083013567ffffffffffffffff811115612a2a57612a29612874565b5b612a3685828601612991565b9250506020612a47858286016129e0565b9150509250929050565b612a5a816129bf565b82525050565b6000602082019050612a756000830184612a51565b92915050565b600060208284031215612a9157612a9061286f565b5b6000612a9f848285016129e0565b91505092915050565b600081519050919050565b600082825260208201905092915050565b6000819050602082019050919050565b600081519050919050565b600082825260208201905092915050565b60005b83811015612b0e578082015181840152602081019050612af3565b83811115612b1d576000848401525b50505050565b6000612b2e82612ad4565b612b388185612adf565b9350612b48818560208601612af0565b612b5181612883565b840191505092915050565b612b65816129bf565b82525050565b600073ffffffffffffffffffffffffffffffffffffffff82169050919050565b6000612b9682612b6b565b9050919050565b612ba681612b8b565b82525050565b60008115159050919050565b612bc181612bac565b82525050565b600060a0830160008301518482036000860152612be48282612b23565b9150506020830151612bf96020860182612b5c565b506040830151612c0c6040860182612b9d565b506060830151612c1f6060860182612b5c565b506080830151612c326080860182612bb8565b508091505092915050565b6000612c498383612bc7565b905092915050565b6000602082019050919050565b6000612c6982612aa8565b612c738185612ab3565b935083602082028501612c8585612ac4565b8060005b85811015612cc15784840389528151612ca28582612c3d565b9450612cad83612c51565b925060208a01995050600181019050612c89565b50829750879550505050505092915050565b60006020820190508181036000830152612ced8184612c5e565b905092915050565b60048110612d0257600080fd5b50565b600081359050612d1481612cf5565b92915050565b60008060408385031215612d3157612d3061286f565b5b6000612d3f858286016129e0565b9250506020612d5085828601612d05565b9150509250929050565b600081519050919050565b600082825260208201905092915050565b6000819050602082019050919050565b60006060830160008301518482036000860152612da38282612b23565b91505060208301518482036020860152612dbd8282612b23565b91505060408301518482036040860152612dd78282612b23565b9150508091505092915050565b6000612df08383612d86565b905092915050565b6000602082019050919050565b6000612e1082612d5a565b612e1a8185612d65565b935083602082028501612e2c85612d76565b8060005b85811015612e685784840389528151612e498582612de4565b9450612e5483612df8565b925060208a01995050600181019050612e30565b50829750879550505050505092915050565b60006020820190508181036000830152612e948184612e05565b905092915050565b612ea581612b8b565b8114612eb057600080fd5b50565b600081359050612ec281612e9c565b92915050565b60008060408385031215612edf57612ede61286f565b5b6000612eed85828601612eb3565b9250506020612efe858286016129e0565b9150509250929050565b6000819050919050565b612f1b81612f08565b82525050565b6000602082019050612f366000830184612f12565b92915050565b612f4581612f08565b8114612f5057600080fd5b50565b600081359050612f6281612f3c565b92915050565b60008060408385031215612f7f57612f7e61286f565b5b6000612f8d85828601612f53565b9250506020612f9e858286016129e0565b9150509250929050565b600081519050919050565b600082825260208201905092915050565b6000819050602082019050919050565b7f4e487b7100000000000000000000000000000000000000000000000000000000600052602160045260246000fd5b6004811061301457613013612fd4565b5b50565b600081905061302582613003565b919050565b600061303582613017565b9050919050565b6130458161302a565b82525050565b6004811061305c5761305b612fd4565b5b50565b600081905061306d8261304b565b919050565b600061307d8261305f565b9050919050565b61308d81613072565b82525050565b600381106130a4576130a3612fd4565b5b50565b60008190506130b582613093565b919050565b60006130c5826130a7565b9050919050565b6130d5816130ba565b82525050565b600081519050919050565b600082825260208201905092915050565b6000819050602082019050919050565b60006131138383612b23565b905092915050565b6000602082019050919050565b6000613133826130db565b61313d81856130e6565b93508360208202850161314f856130f7565b8060005b8581101561318b578484038952815161316c8582613107565b94506131778361311b565b925060208a01995050600181019050613153565b50829750879550505050505092915050565b6000610140830160008301516131b66000860182613084565b5060208301516131c96020860182613084565b5060408301516131dc60408601826130cc565b50606083015184820360608601526131f48282612b23565b9150506080830151848203608086015261320e8282612b23565b91505060a083015161322360a0860182612b5c565b5060c083015184820360c086015261323b8282612b23565b91505060e083015161325060e0860182612b5c565b50610100830151613265610100860182612b5c565b5061012083015184820361012086015261327f8282613128565b9150508091505092915050565b600060a0830160008301516132a46000860182612b5c565b5060208301516132b76020860182612b9d565b5060408301516132ca6040860182612b5c565b5060608301516132dd606086018261303c565b50608083015184820360808601526132f5828261319d565b9150508091505092915050565b600061330e838361328c565b905092915050565b6000602082019050919050565b600061332e82612fa8565b6133388185612fb3565b93508360208202850161334a85612fc4565b8060005b8581101561338657848403895281516133678582613302565b945061337283613316565b925060208a0199505060018101905061334e565b50829750879550505050505092915050565b600060208201905081810360008301526133b28184613323565b905092915050565b600080604083850312156133d1576133d061286f565b5b60006133df858286016129e0565b92505060206133f0858286016129e0565b9150509250929050565b600067ffffffffffffffff82111561341557613414612894565b5b602082029050602081019050919050565b600080fd5b600080fd5b600080fd5b60006060828403121561344b5761344a61342b565b5b61345560606128f4565b9050600082013567ffffffffffffffff81111561347557613474613430565b5b61348184828501612991565b600083015250602082013567ffffffffffffffff8111156134a5576134a4613430565b5b6134b184828501612991565b602083015250604082013567ffffffffffffffff8111156134d5576134d4613430565b5b6134e184828501612991565b60408301525092915050565b60006135006134fb846133fa565b6128f4565b9050808382526020820190506020840283018581111561352357613522613426565b5b835b8181101561356a57803567ffffffffffffffff81111561354857613547612879565b5b8086016135558982613435565b85526020850194505050602081019050613525565b5050509392505050565b600082601f83011261358957613588612879565b5b81356135998482602086016134ed565b91505092915050565b600481106135af57600080fd5b50565b6000813590506135c1816135a2565b92915050565b600381106135d457600080fd5b50565b6000813590506135e6816135c7565b92915050565b600067ffffffffffffffff82111561360757613606612894565b5b602082029050602081019050919050565b600061362b613626846135ec565b6128f4565b9050808382526020820190506020840283018581111561364e5761364d613426565b5b835b8181101561369557803567ffffffffffffffff81111561367357613672612879565b5b8086016136808982612991565b85526020850194505050602081019050613650565b5050509392505050565b600082601f8301126136b4576136b3612879565b5b81356136c4848260208601613618565b91505092915050565b600061014082840312156136e4576136e361342b565b5b6136ef6101406128f4565b905060006136ff848285016135b2565b6000830152506020613713848285016135b2565b6020830152506040613727848285016135d7565b604083015250606082013567ffffffffffffffff81111561374b5761374a613430565b5b61375784828501612991565b606083015250608082013567ffffffffffffffff81111561377b5761377a613430565b5b61378784828501612991565b60808301525060a061379b848285016129e0565b60a08301525060c082013567ffffffffffffffff8111156137bf576137be613430565b5b6137cb84828501612991565b60c08301525060e06137df848285016129e0565b60e0830152506101006137f4848285016129e0565b6101008301525061012082013567ffffffffffffffff81111561381a57613819613430565b5b6138268482850161369f565b6101208301525092915050565b6000806040838503121561384a5761384961286f565b5b600083013567ffffffffffffffff81111561386857613867612874565b5b61387485828601613574565b925050602083013567ffffffffffffffff81111561389557613894612874565b5b6138a1858286016136cd565b9150509250929050565b6138b481612b8b565b82525050565b6138c38161302a565b82525050565b6000610140830160008301516138e26000860182613084565b5060208301516138f56020860182613084565b50604083015161390860408601826130cc565b50606083015184820360608601526139208282612b23565b9150506080830151848203608086015261393a8282612b23565b91505060a083015161394f60a0860182612b5c565b5060c083015184820360c08601526139678282612b23565b91505060e083015161397c60e0860182612b5c565b50610100830151613991610100860182612b5c565b506101208301518482036101208601526139ab8282613128565b9150508091505092915050565b600060a0820190506139cd6000830188612a51565b6139da60208301876138ab565b6139e76040830186612a51565b6139f460608301856138ba565b8181036080830152613a0681846138c9565b90509695505050505050565b600082825260208201905092915050565b6000613a2e82612ad4565b613a388185613a12565b9350613a48818560208601612af0565b613a5181612883565b840191505092915050565b60006060820190508181036000830152613a768186613a23565b90508181036020830152613a8a8185613a23565b90508181036040830152613a9e8184613a23565b9050949350505050565b613ab181612bac565b82525050565b600060a0820190508181036000830152613ad18188613a23565b9050613ae06020830187612a51565b613aed60408301866138ab565b613afa6060830185612a51565b613b076080830184613aa8565b9695505050505050565b7f4e487b7100000000000000000000000000000000000000000000000000000000600052602260045260246000fd5b60006002820490506001821680613b5857607f821691505b60208210811415613b6c57613b6b613b11565b5b50919050565b7f4e487b7100000000000000000000000000000000000000000000000000000000600052603260045260246000fd5b7f596f752063616e6e6f7420636c6f736520746869732072657175657374000000600082015250565b6000613bd7601d83613a12565b9150613be282613ba1565b602082019050919050565b60006020820190508181036000830152613c0681613bca565b9050919050565b6000604082019050613c226000830185612a51565b613c2f60208301846138ba565b9392505050565b6000604082019050613c4b60008301856138ab565b613c586020830184612a51565b9392505050565b613c6881612bac565b8114613c7357600080fd5b50565b600081519050613c8581613c5f565b92915050565b600060208284031215613ca157613ca061286f565b5b6000613caf84828501613c76565b91505092915050565b7f536f75726365206d75737420626520746865206f7261636c65206f662074686560008201527f2072657175657374000000000000000000000000000000000000000000000000602082015250565b6000613d14602883613a12565b9150613d1f82613cb8565b604082019050919050565b60006020820190508181036000830152613d4381613d07565b9050919050565b7f4e487b7100000000000000000000000000000000000000000000000000000000600052601160045260246000fd5b6000613d84826129bf565b91507fffffffffffffffffffffffffffffffffffffffffffffffffffffffffffffffff821415613db757613db6613d4a565b5b600182019050919050565b6000613dcd826129bf565b9150613dd8836129bf565b9250827fffffffffffffffffffffffffffffffffffffffffffffffffffffffffffffffff03821115613e0d57613e0c613d4a565b5b828201905092915050565b60007fffffffff0000000000000000000000000000000000000000000000000000000082169050919050565b613e4d81613e18565b82525050565b600081519050919050565b600082825260208201905092915050565b6000613e7a82613e53565b613e848185613e5e565b9350613e94818560208601612af0565b613e9d81612883565b840191505092915050565b600061010082019050613ebe600083018b6138ab565b613ecb602083018a612a51565b613ed86040830189612f12565b613ee560608301886138ab565b613ef26080830187613e44565b613eff60a0830186612a51565b613f0c60c0830185612a51565b81810360e0830152613f1e8184613e6f565b90509998505050505050505050565b6000819050919050565b6000613f4282613f2d565b9150613f4d83613f2d565b9250827f800000000000000000000000000000000000000000000000000000000000000001821260008412151615613f8857613f87613d4a565b5b827f7fffffffffffffffffffffffffffffffffffffffffffffffffffffffffffffff018213600084121615613fc057613fbf613d4a565b5b828203905092915050565b6000819050919050565b6000613ff0613feb613fe684612b6b565b613fcb565b612b6b565b9050919050565b600061400282613fd5565b9050919050565b600061401482613ff7565b9050919050565b60008160601b9050919050565b60006140338261401b565b9050919050565b600061404582614028565b9050919050565b61405d61405882614009565b61403a565b82525050565b6000819050919050565b61407e614079826129bf565b614063565b82525050565b6000614090828561404c565b6014820191506140a0828461406d565b6020820191508190509392505050565b60006060820190506140c560008301866138ab565b6140d26020830185612a51565b81810360408301526140e48184613e6f565b9050949350505050565b7f756e61626c6520746f207472616e73666572416e6443616c6c20746f206f726160008201527f636c650000000000000000000000000000000000000000000000000000000000602082015250565b600061414a602383613a12565b9150614155826140ee565b604082019050919050565b600060208201905081810360008301526141798161413d565b9050919050565b7f4e487b7100000000000000000000000000000000000000000000000000000000600052601260045260246000fd5b60006141ba826129bf565b91506141c5836129bf565b9250826141d5576141d4614180565b5b828206905092915050565b60006141eb826129bf565b91506141f6836129bf565b92508282101561420957614208613d4a565b5b828203905092915050565b600061421f826129bf565b915061422a836129bf565b9250817fffffffffffffffffffffffffffffffffffffffffffffffffffffffffffffffff048311821515161561426357614262613d4a565b5b828202905092915050565b60008160011c9050919050565b6000808291508390505b60018511156142c5578086048111156142a1576142a0613d4a565b5b60018516156142b05780820291505b80810290506142be8561426e565b9450614285565b94509492505050565b6000826142de576001905061439a565b816142ec576000905061439a565b8160018114614302576002811461430c5761433b565b600191505061439a565b60ff84111561431e5761431d613d4a565b5b8360020a91508482111561433557614334613d4a565b5b5061439a565b5060208310610133831016604e8410600b84101617156143705782820a90508381111561436b5761436a613d4a565b5b61439a565b61437d848484600161427b565b9250905081840481111561439457614393613d4a565b5b81810290505b9392505050565b60006143ac826129bf565b91506143b7836129bf565b92506143e47fffffffffffffffffffffffffffffffffffffffffffffffffffffffffffffffff84846142ce565b90509291505056fe68747470733a2f2f6d696e2d6170692e63727970746f636f6d706172652e636f6d2f646174612f70726963653f6673796d3d4d41544943267473796d733d555344a264697066735822122083abd42d8e9af57f24542c409b15e0956bdf560aaef563ad0f268276347f107364736f6c63430008090033",
  "linkReferences": {},
  "deployedLinkReferences": {}
}