{
  "_format": "hh-sol-artifact-1",
  "contractName": "MissingPeople",
  "sourceName": "contracts/MissingPeople.sol",
  "abi": [
    {
      "inputs": [],
      "stateMutability": "nonpayable",
      "type": "constructor"
    },
    {
      "anonymous": false,
      "inputs": [
        {
          "indexed": false,
          "internalType": "uint256",
          "name": "date",
          "type": "uint256"
        },
        {
          "indexed": false,
          "internalType": "enum MissingPeople.Resolution",
          "name": "resolution",
          "type": "uint8"
        }
      ],
      "name": "CaseClosed",
      "type": "event"
    },
    {
      "anonymous": false,
      "inputs": [],
      "name": "CaseFollowup",
      "type": "event"
    },
    {
      "anonymous": false,
      "inputs": [
        {
          "indexed": true,
          "internalType": "bytes32",
          "name": "id",
          "type": "bytes32"
        }
      ],
      "name": "ChainlinkCancelled",
      "type": "event"
    },
    {
      "anonymous": false,
      "inputs": [
        {
          "indexed": true,
          "internalType": "bytes32",
          "name": "id",
          "type": "bytes32"
        }
      ],
      "name": "ChainlinkFulfilled",
      "type": "event"
    },
    {
      "anonymous": false,
      "inputs": [
        {
          "indexed": true,
          "internalType": "bytes32",
          "name": "id",
          "type": "bytes32"
        }
      ],
      "name": "ChainlinkRequested",
      "type": "event"
    },
    {
      "inputs": [
        {
          "internalType": "uint256",
          "name": "id",
          "type": "uint256"
        },
        {
          "internalType": "enum MissingPeople.Resolution",
          "name": "resolution",
          "type": "uint8"
        }
      ],
      "name": "closeCase",
      "outputs": [],
      "stateMutability": "nonpayable",
      "type": "function"
    },
    {
      "inputs": [
        {
          "internalType": "string",
          "name": "description",
          "type": "string"
        },
        {
          "internalType": "uint256",
          "name": "id",
          "type": "uint256"
        }
      ],
      "name": "createFollowup",
      "outputs": [],
      "stateMutability": "nonpayable",
      "type": "function"
    },
    {
      "inputs": [
        {
          "components": [
            {
              "internalType": "string",
              "name": "lat",
              "type": "string"
            },
            {
              "internalType": "string",
              "name": "lng",
              "type": "string"
            },
            {
              "internalType": "string",
              "name": "radius",
              "type": "string"
            }
          ],
          "internalType": "struct MissingPeople.Coordinates[]",
          "name": "location",
          "type": "tuple[]"
        },
        {
          "components": [
            {
              "internalType": "enum MissingPeople.CommonColors",
              "name": "eyes",
              "type": "uint8"
            },
            {
              "internalType": "enum MissingPeople.CommonColors",
              "name": "hair",
              "type": "uint8"
            },
            {
              "internalType": "enum MissingPeople.Genre",
              "name": "genre",
              "type": "uint8"
            },
            {
              "internalType": "string",
              "name": "remarks",
              "type": "string"
            },
            {
              "internalType": "string",
              "name": "name",
              "type": "string"
            },
            {
              "internalType": "uint256",
              "name": "birthDate",
              "type": "uint256"
            },
            {
              "internalType": "string",
              "name": "nationality",
              "type": "string"
            },
            {
              "internalType": "uint256",
              "name": "weight",
              "type": "uint256"
            },
            {
              "internalType": "uint256",
              "name": "height",
              "type": "uint256"
            },
            {
              "internalType": "string[]",
              "name": "images",
              "type": "string[]"
            }
          ],
          "internalType": "struct MissingPeople.Person",
          "name": "missingPerson",
          "type": "tuple"
        }
      ],
      "name": "createReport",
      "outputs": [],
      "stateMutability": "nonpayable",
      "type": "function"
    },
    {
      "inputs": [
        {
          "internalType": "uint256",
          "name": "",
          "type": "uint256"
        }
      ],
      "name": "crimeReports",
      "outputs": [
        {
          "internalType": "uint256",
          "name": "id",
          "type": "uint256"
        },
        {
          "internalType": "address",
          "name": "reporter",
          "type": "address"
        },
        {
          "internalType": "uint256",
          "name": "created",
          "type": "uint256"
        },
        {
          "internalType": "enum MissingPeople.Resolution",
          "name": "resolution",
          "type": "uint8"
        },
        {
          "components": [
            {
              "internalType": "enum MissingPeople.CommonColors",
              "name": "eyes",
              "type": "uint8"
            },
            {
              "internalType": "enum MissingPeople.CommonColors",
              "name": "hair",
              "type": "uint8"
            },
            {
              "internalType": "enum MissingPeople.Genre",
              "name": "genre",
              "type": "uint8"
            },
            {
              "internalType": "string",
              "name": "remarks",
              "type": "string"
            },
            {
              "internalType": "string",
              "name": "name",
              "type": "string"
            },
            {
              "internalType": "uint256",
              "name": "birthDate",
              "type": "uint256"
            },
            {
              "internalType": "string",
              "name": "nationality",
              "type": "string"
            },
            {
              "internalType": "uint256",
              "name": "weight",
              "type": "uint256"
            },
            {
              "internalType": "uint256",
              "name": "height",
              "type": "uint256"
            },
            {
              "internalType": "string[]",
              "name": "images",
              "type": "string[]"
            }
          ],
          "internalType": "struct MissingPeople.Person",
          "name": "missingPerson",
          "type": "tuple"
        }
      ],
      "stateMutability": "view",
      "type": "function"
    },
    {
      "inputs": [
        {
          "internalType": "uint256",
          "name": "",
          "type": "uint256"
        },
        {
          "internalType": "uint256",
          "name": "",
          "type": "uint256"
        }
      ],
      "name": "followUpReports",
      "outputs": [
        {
          "internalType": "string",
          "name": "description",
          "type": "string"
        },
        {
          "internalType": "uint256",
          "name": "created",
          "type": "uint256"
        },
        {
          "internalType": "address",
          "name": "reporter",
          "type": "address"
        },
        {
          "internalType": "uint256",
          "name": "report",
          "type": "uint256"
        },
        {
          "internalType": "bool",
          "name": "paid",
          "type": "bool"
        }
      ],
      "stateMutability": "view",
      "type": "function"
    },
    {
      "inputs": [
        {
          "internalType": "bytes32",
          "name": "_requestId",
          "type": "bytes32"
        },
        {
          "internalType": "uint256",
          "name": "_price",
          "type": "uint256"
        }
      ],
      "name": "fulfill",
      "outputs": [],
      "stateMutability": "nonpayable",
      "type": "function"
    },
    {
      "inputs": [
        {
          "internalType": "uint256",
          "name": "id",
          "type": "uint256"
        }
      ],
      "name": "getAllReportCoordinates",
      "outputs": [
        {
          "components": [
            {
              "internalType": "string",
              "name": "lat",
              "type": "string"
            },
            {
              "internalType": "string",
              "name": "lng",
              "type": "string"
            },
            {
              "internalType": "string",
              "name": "radius",
              "type": "string"
            }
          ],
          "internalType": "struct MissingPeople.Coordinates[]",
          "name": "",
          "type": "tuple[]"
        }
      ],
      "stateMutability": "view",
      "type": "function"
    },
    {
      "inputs": [],
      "name": "getCrimeReports",
      "outputs": [
        {
          "components": [
            {
              "internalType": "uint256",
              "name": "id",
              "type": "uint256"
            },
            {
              "internalType": "address",
              "name": "reporter",
              "type": "address"
            },
            {
              "internalType": "uint256",
              "name": "created",
              "type": "uint256"
            },
            {
              "internalType": "enum MissingPeople.Resolution",
              "name": "resolution",
              "type": "uint8"
            },
            {
              "components": [
                {
                  "internalType": "enum MissingPeople.CommonColors",
                  "name": "eyes",
                  "type": "uint8"
                },
                {
                  "internalType": "enum MissingPeople.CommonColors",
                  "name": "hair",
                  "type": "uint8"
                },
                {
                  "internalType": "enum MissingPeople.Genre",
                  "name": "genre",
                  "type": "uint8"
                },
                {
                  "internalType": "string",
                  "name": "remarks",
                  "type": "string"
                },
                {
                  "internalType": "string",
                  "name": "name",
                  "type": "string"
                },
                {
                  "internalType": "uint256",
                  "name": "birthDate",
                  "type": "uint256"
                },
                {
                  "internalType": "string",
                  "name": "nationality",
                  "type": "string"
                },
                {
                  "internalType": "uint256",
                  "name": "weight",
                  "type": "uint256"
                },
                {
                  "internalType": "uint256",
                  "name": "height",
                  "type": "uint256"
                },
                {
                  "internalType": "string[]",
                  "name": "images",
                  "type": "string[]"
                }
              ],
              "internalType": "struct MissingPeople.Person",
              "name": "missingPerson",
              "type": "tuple"
            }
          ],
          "internalType": "struct MissingPeople.Report[]",
          "name": "",
          "type": "tuple[]"
        }
      ],
      "stateMutability": "view",
      "type": "function"
    },
    {
      "inputs": [
        {
          "internalType": "uint256",
          "name": "reportId",
          "type": "uint256"
        }
      ],
      "name": "getFollowupReports",
      "outputs": [
        {
          "components": [
            {
              "internalType": "string",
              "name": "description",
              "type": "string"
            },
            {
              "internalType": "uint256",
              "name": "created",
              "type": "uint256"
            },
            {
              "internalType": "address",
              "name": "reporter",
              "type": "address"
            },
            {
              "internalType": "uint256",
              "name": "report",
              "type": "uint256"
            },
            {
              "internalType": "bool",
              "name": "paid",
              "type": "bool"
            }
          ],
          "internalType": "struct MissingPeople.FollowUpReport[]",
          "name": "",
          "type": "tuple[]"
        }
      ],
      "stateMutability": "view",
      "type": "function"
    },
    {
      "inputs": [],
      "name": "linkPrice",
      "outputs": [
        {
          "internalType": "uint256",
          "name": "",
          "type": "uint256"
        }
      ],
      "stateMutability": "view",
      "type": "function"
    },
    {
      "inputs": [
        {
          "internalType": "uint256",
          "name": "",
          "type": "uint256"
        },
        {
          "internalType": "uint256",
          "name": "",
          "type": "uint256"
        }
      ],
      "name": "reportCoordinates",
      "outputs": [
        {
          "internalType": "string",
          "name": "lat",
          "type": "string"
        },
        {
          "internalType": "string",
          "name": "lng",
          "type": "string"
        },
        {
          "internalType": "string",
          "name": "radius",
          "type": "string"
        }
      ],
      "stateMutability": "view",
      "type": "function"
    },
    {
      "inputs": [],
      "name": "requestTokenPrice",
      "outputs": [
        {
          "internalType": "bytes32",
          "name": "requestId",
          "type": "bytes32"
        }
      ],
      "stateMutability": "nonpayable",
      "type": "function"
    },
    {
      "inputs": [
        {
          "internalType": "uint256",
          "name": "report",
          "type": "uint256"
        },
        {
          "internalType": "uint256",
          "name": "id",
          "type": "uint256"
        }
      ],
      "name": "sendReward",
      "outputs": [],
      "stateMutability": "nonpayable",
      "type": "function"
    },
    {
      "inputs": [
        {
          "internalType": "address",
          "name": "to",
          "type": "address"
        },
        {
          "internalType": "uint256",
          "name": "amount",
          "type": "uint256"
        }
      ],
      "name": "sendToken",
      "outputs": [],
      "stateMutability": "nonpayable",
      "type": "function"
    },
    {
      "stateMutability": "payable",
      "type": "receive"
    }
  ],
  "bytecode": "0x6080604052600160045573326c977e6efc84e512bb9c30f76e30c160ed06fb600660006101000a81548173ffffffffffffffffffffffffffffffffffffffff021916908373ffffffffffffffffffffffffffffffffffffffff1602179055503480156200006b57600080fd5b50600073326c977e6efc84e512bb9c30f76e30c160ed06fb905062000096816200012860201b60201c565b7f63613938333636636337333134393537623863303132633732663035616565626009819055507340193c8518bb267228fc409a613bdbd8ec5a97b3600860006101000a81548173ffffffffffffffffffffffffffffffffffffffff021916908373ffffffffffffffffffffffffffffffffffffffff16021790555067016345785d8a0000600a81905550506200016c565b80600260006101000a81548173ffffffffffffffffffffffffffffffffffffffff021916908373ffffffffffffffffffffffffffffffffffffffff16021790555050565b614473806200017c6000396000f3fe6080604052600436106100e15760003560e01c80634357855e1161007f5780637f40af8d116100595780637f40af8d146102b5578063aff058fc146102de578063c91dc8881461031f578063df361fcb1461035e576100e8565b80634357855e146102385780635e7725a31461026157806376d438b01461028c576100e8565b8063266a74c1116100bb578063266a74c11461017e5780632d219090146101a7578063412664ae146101e457806341e4a02f1461020d576100e8565b806301db185c146100ed5780630cf7853514610116578063244034be14610141576100e8565b366100e857005b600080fd5b3480156100f957600080fd5b50610114600480360381019061010f91906129f7565b61039f565b005b34801561012257600080fd5b5061012b6104f4565b6040516101389190612a62565b60405180910390f35b34801561014d57600080fd5b5061016860048036038101906101639190612a7d565b6104fa565b6040516101759190612cd5565b60405180910390f35b34801561018a57600080fd5b506101a560048036038101906101a09190612d1c565b610683565b005b3480156101b357600080fd5b506101ce60048036038101906101c99190612a7d565b6107c0565b6040516101db9190612e7c565b60405180910390f35b3480156101f057600080fd5b5061020b60048036038101906102069190612eca565b6109e8565b005b34801561021957600080fd5b50610222610a9e565b60405161022f9190612f23565b60405180910390f35b34801561024457600080fd5b5061025f600480360381019061025a9190612f6a565b610c18565b005b34801561026d57600080fd5b50610276610d29565b604051610283919061339a565b60405180910390f35b34801561029857600080fd5b506102b360048036038101906102ae91906133bc565b6111a0565b005b3480156102c157600080fd5b506102dc60048036038101906102d79190613835565b6112c5565b005b3480156102ea57600080fd5b5061030560048036038101906103009190612a7d565b6115de565b6040516103169594939291906139ba565b60405180910390f35b34801561032b57600080fd5b50610346600480360381019061034191906133bc565b6119ba565b60405161035593929190613a5e565b60405180910390f35b34801561036a57600080fd5b50610385600480360381019061038091906133bc565b611b99565b604051610396959493929190613ab9565b60405180910390f35b60006040518060a001604052808481526020014281526020013373ffffffffffffffffffffffffffffffffffffffff168152602001838152602001600015158152509050600c6000838152602001908152602001600020819080600181540180825580915050600190039060005260206000209060050201600090919091909150600082015181600001908051906020019061043c929190612679565b506020820151816001015560408201518160020160006101000a81548173ffffffffffffffffffffffffffffffffffffffff021916908373ffffffffffffffffffffffffffffffffffffffff1602179055506060820151816003015560808201518160040160006101000a81548160ff02191690831515021790555050506104c2610a9e565b507f27bc565353ac33dadbafeccf6130a5665f824f9384610858ec18bc2e91e95d6a60405160405180910390a1505050565b60075481565b6060600c6000838152602001908152602001600020805480602002602001604051908101604052809291908181526020016000905b8282101561067857838290600052602060002090600502016040518060a001604052908160008201805461056290613b42565b80601f016020809104026020016040519081016040528092919081815260200182805461058e90613b42565b80156105db5780601f106105b0576101008083540402835291602001916105db565b820191906000526020600020905b8154815290600101906020018083116105be57829003601f168201915b50505050508152602001600182015481526020016002820160009054906101000a900473ffffffffffffffffffffffffffffffffffffffff1673ffffffffffffffffffffffffffffffffffffffff1673ffffffffffffffffffffffffffffffffffffffff168152602001600382015481526020016004820160009054906101000a900460ff1615151515815250508152602001906001019061052f565b505050509050919050565b600d828154811061069757610696613b74565b5b90600052602060002090600c020160010160009054906101000a900473ffffffffffffffffffffffffffffffffffffffff1673ffffffffffffffffffffffffffffffffffffffff163373ffffffffffffffffffffffffffffffffffffffff1614610736576040517f08c379a000000000000000000000000000000000000000000000000000000000815260040161072d90613bef565b60405180910390fd5b80600d838154811061074b5761074a613b74565b5b90600052602060002090600c020160030160006101000a81548160ff0219169083600381111561077e5761077d612fd6565b5b02179055507fd0adc5d52a4f2aa7bdf368911ade812c5e1b64b60ae689c36fe9ba6058941dda42826040516107b4929190613c0f565b60405180910390a15050565b6060600b6000838152602001908152602001600020805480602002602001604051908101604052809291908181526020016000905b828210156109dd578382906000526020600020906003020160405180606001604052908160008201805461082890613b42565b80601f016020809104026020016040519081016040528092919081815260200182805461085490613b42565b80156108a15780601f10610876576101008083540402835291602001916108a1565b820191906000526020600020905b81548152906001019060200180831161088457829003601f168201915b505050505081526020016001820180546108ba90613b42565b80601f01602080910402602001604051908101604052809291908181526020018280546108e690613b42565b80156109335780601f1061090857610100808354040283529160200191610933565b820191906000526020600020905b81548152906001019060200180831161091657829003601f168201915b5050505050815260200160028201805461094c90613b42565b80601f016020809104026020016040519081016040528092919081815260200182805461097890613b42565b80156109c55780601f1061099a576101008083540402835291602001916109c5565b820191906000526020600020905b8154815290600101906020018083116109a857829003601f168201915b505050505081525050815260200190600101906107f5565b505050509050919050565b600660009054906101000a900473ffffffffffffffffffffffffffffffffffffffff1673ffffffffffffffffffffffffffffffffffffffff166323b872dd3384846040518463ffffffff1660e01b8152600401610a4793929190613c38565b602060405180830381600087803b158015610a6157600080fd5b505af1158015610a75573d6000803e3d6000fd5b505050506040513d601f19601f82011682018060405250810190610a999190613c9b565b505050565b600080610ab560095430634357855e60e01b611ca1565b9050610b196040518060400160405280600381526020017f67657400000000000000000000000000000000000000000000000000000000008152506040518060800160405280604181526020016143fd6041913983611cd29092919063ffffffff16565b610b986040518060400160405280600481526020017f70617468000000000000000000000000000000000000000000000000000000008152506040518060400160405280600381526020017f555344000000000000000000000000000000000000000000000000000000000081525083611cd29092919063ffffffff16565b610be36040518060400160405280600581526020017f74696d6573000000000000000000000000000000000000000000000000000000815250606483611d059092919063ffffffff16565b610c12600860009054906101000a900473ffffffffffffffffffffffffffffffffffffffff1682600a54611d38565b91505090565b816005600082815260200190815260200160002060009054906101000a900473ffffffffffffffffffffffffffffffffffffffff1673ffffffffffffffffffffffffffffffffffffffff163373ffffffffffffffffffffffffffffffffffffffff1614610cba576040517f08c379a0000000000000000000000000000000000000000000000000000000008152600401610cb190613d3a565b60405180910390fd5b6005600082815260200190815260200160002060006101000a81549073ffffffffffffffffffffffffffffffffffffffff0219169055807f7cc135e0cebb02c3480ae5d74d377283180a2601f8f644edf7987b009316c63a60405160405180910390a281600781905550505050565b6060600d805480602002602001604051908101604052809291908181526020016000905b8282101561119757838290600052602060002090600c02016040518060a0016040529081600082015481526020016001820160009054906101000a900473ffffffffffffffffffffffffffffffffffffffff1673ffffffffffffffffffffffffffffffffffffffff1673ffffffffffffffffffffffffffffffffffffffff168152602001600282015481526020016003820160009054906101000a900460ff166003811115610dff57610dfe612fd6565b5b6003811115610e1157610e10612fd6565b5b815260200160048201604051806101400160405290816000820160009054906101000a900460ff166003811115610e4b57610e4a612fd6565b5b6003811115610e5d57610e5c612fd6565b5b81526020016000820160019054906101000a900460ff166003811115610e8657610e85612fd6565b5b6003811115610e9857610e97612fd6565b5b81526020016000820160029054906101000a900460ff166002811115610ec157610ec0612fd6565b5b6002811115610ed357610ed2612fd6565b5b8152602001600182018054610ee790613b42565b80601f0160208091040260200160405190810160405280929190818152602001828054610f1390613b42565b8015610f605780601f10610f3557610100808354040283529160200191610f60565b820191906000526020600020905b815481529060010190602001808311610f4357829003601f168201915b50505050508152602001600282018054610f7990613b42565b80601f0160208091040260200160405190810160405280929190818152602001828054610fa590613b42565b8015610ff25780601f10610fc757610100808354040283529160200191610ff2565b820191906000526020600020905b815481529060010190602001808311610fd557829003601f168201915b505050505081526020016003820154815260200160048201805461101590613b42565b80601f016020809104026020016040519081016040528092919081815260200182805461104190613b42565b801561108e5780601f106110635761010080835404028352916020019161108e565b820191906000526020600020905b81548152906001019060200180831161107157829003601f168201915b50505050508152602001600582015481526020016006820154815260200160078201805480602002602001604051908101604052809291908181526020016000905b8282101561117c5783829060005260206000200180546110ef90613b42565b80601f016020809104026020016040519081016040528092919081815260200182805461111b90613b42565b80156111685780601f1061113d57610100808354040283529160200191611168565b820191906000526020600020905b81548152906001019060200180831161114b57829003601f168201915b5050505050815260200190600101906110d0565b50505050815250508152505081526020019060010190610d4d565b50505050905090565b6001600c600084815260200190815260200160002082815481106111c7576111c6613b74565b5b906000526020600020906005020160040160006101000a81548160ff02191690831515021790555060146007541161125f5761125a600c6000848152602001908152602001600020828154811061122157611220613b74565b5b906000526020600020906005020160020160009054906101000a900473ffffffffffffffffffffffffffffffffffffffff1660016109e8565b6112c1565b6112c0600c6000848152602001908152602001600020828154811061128757611286613b74565b5b906000526020600020906005020160020160009054906101000a900473ffffffffffffffffffffffffffffffffffffffff1660026109e8565b5b5050565b60006040518060a00160405280600d8054905081526020013373ffffffffffffffffffffffffffffffffffffffff16815260200142815260200160038081111561131257611311612fd6565b5b8152602001838152509050600d8190806001815401808255809150506001900390600052602060002090600c02016000909190919091506000820151816000015560208201518160010160006101000a81548173ffffffffffffffffffffffffffffffffffffffff021916908373ffffffffffffffffffffffffffffffffffffffff1602179055506040820151816002015560608201518160030160006101000a81548160ff021916908360038111156113cf576113ce612fd6565b5b021790555060808201518160040160008201518160000160006101000a81548160ff0219169083600381111561140857611407612fd6565b5b021790555060208201518160000160016101000a81548160ff0219169083600381111561143857611437612fd6565b5b021790555060408201518160000160026101000a81548160ff0219169083600281111561146857611467612fd6565b5b02179055506060820151816001019080519060200190611489929190612679565b5060808201518160020190805190602001906114a6929190612679565b5060a0820151816003015560c08201518160040190805190602001906114cd929190612679565b5060e0820151816005015561010082015181600601556101208201518160070190805190602001906115009291906126ff565b505050505060005b83518110156115d857600b60008360000151815260200190815260200160002084828151811061153b5761153a613b74565b5b602002602001015190806001815401808255809150506001900390600052602060002090600302016000909190919091506000820151816000019080519060200190611588929190612679565b5060208201518160010190805190602001906115a5929190612679565b5060408201518160020190805190602001906115c2929190612679565b50505080806115d090613d89565b915050611508565b50505050565b600d81815481106115ee57600080fd5b90600052602060002090600c02016000915090508060000154908060010160009054906101000a900473ffffffffffffffffffffffffffffffffffffffff16908060020154908060030160009054906101000a900460ff169080600401604051806101400160405290816000820160009054906101000a900460ff16600381111561167c5761167b612fd6565b5b600381111561168e5761168d612fd6565b5b81526020016000820160019054906101000a900460ff1660038111156116b7576116b6612fd6565b5b60038111156116c9576116c8612fd6565b5b81526020016000820160029054906101000a900460ff1660028111156116f2576116f1612fd6565b5b600281111561170457611703612fd6565b5b815260200160018201805461171890613b42565b80601f016020809104026020016040519081016040528092919081815260200182805461174490613b42565b80156117915780601f1061176657610100808354040283529160200191611791565b820191906000526020600020905b81548152906001019060200180831161177457829003601f168201915b505050505081526020016002820180546117aa90613b42565b80601f01602080910402602001604051908101604052809291908181526020018280546117d690613b42565b80156118235780601f106117f857610100808354040283529160200191611823565b820191906000526020600020905b81548152906001019060200180831161180657829003601f168201915b505050505081526020016003820154815260200160048201805461184690613b42565b80601f016020809104026020016040519081016040528092919081815260200182805461187290613b42565b80156118bf5780601f10611894576101008083540402835291602001916118bf565b820191906000526020600020905b8154815290600101906020018083116118a257829003601f168201915b50505050508152602001600582015481526020016006820154815260200160078201805480602002602001604051908101604052809291908181526020016000905b828210156119ad57838290600052602060002001805461192090613b42565b80601f016020809104026020016040519081016040528092919081815260200182805461194c90613b42565b80156119995780601f1061196e57610100808354040283529160200191611999565b820191906000526020600020905b81548152906001019060200180831161197c57829003601f168201915b505050505081526020019060010190611901565b5050505081525050905085565b600b60205281600052604060002081815481106119d657600080fd5b9060005260206000209060030201600091509150508060000180546119fa90613b42565b80601f0160208091040260200160405190810160405280929190818152602001828054611a2690613b42565b8015611a735780601f10611a4857610100808354040283529160200191611a73565b820191906000526020600020905b815481529060010190602001808311611a5657829003601f168201915b505050505090806001018054611a8890613b42565b80601f0160208091040260200160405190810160405280929190818152602001828054611ab490613b42565b8015611b015780601f10611ad657610100808354040283529160200191611b01565b820191906000526020600020905b815481529060010190602001808311611ae457829003601f168201915b505050505090806002018054611b1690613b42565b80601f0160208091040260200160405190810160405280929190818152602001828054611b4290613b42565b8015611b8f5780601f10611b6457610100808354040283529160200191611b8f565b820191906000526020600020905b815481529060010190602001808311611b7257829003601f168201915b5050505050905083565b600c6020528160005260406000208181548110611bb557600080fd5b906000526020600020906005020160009150915050806000018054611bd990613b42565b80601f0160208091040260200160405190810160405280929190818152602001828054611c0590613b42565b8015611c525780601f10611c2757610100808354040283529160200191611c52565b820191906000526020600020905b815481529060010190602001808311611c3557829003601f168201915b5050505050908060010154908060020160009054906101000a900473ffffffffffffffffffffffffffffffffffffffff16908060030154908060040160009054906101000a900460ff16905085565b611ca961275f565b611cb161275f565b611cc885858584611e04909392919063ffffffff16565b9150509392505050565b611ce9828460800151611eb490919063ffffffff16565b611d00818460800151611eb490919063ffffffff16565b505050565b611d1c828460800151611eb490919063ffffffff16565b611d33818460800151611ed990919063ffffffff16565b505050565b6000806004549050600181611d4d9190613dd2565b6004819055506000634042994660e01b60008087600001513089604001518760018c6080015160000151604051602401611d8e989796959493929190613eb8565b604051602081830303815290604052907bffffffffffffffffffffffffffffffffffffffffffffffffffffffff19166020820180517bffffffffffffffffffffffffffffffffffffffffffffffffffffffff83818316178352505050509050611df986838684611f86565b925050509392505050565b611e0c61275f565b611e1c856080015161010061212a565b508385600001818152505082856020019073ffffffffffffffffffffffffffffffffffffffff16908173ffffffffffffffffffffffffffffffffffffffff16815250508185604001907bffffffffffffffffffffffffffffffffffffffffffffffffffffffff191690817bffffffffffffffffffffffffffffffffffffffffffffffffffffffff191681525050849050949350505050565b611ec18260038351612194565b611ed4818361231990919063ffffffff16565b505050565b7fffffffffffffffffffffffffffffffffffffffffffffffff0000000000000000811215611f1057611f0b828261233b565b611f82565b67ffffffffffffffff811315611f2f57611f2a82826123b2565b611f81565b60008112611f4857611f4382600083612194565b611f80565b611f7f826001837fffffffffffffffffffffffffffffffffffffffffffffffffffffffffffffffff611f7a9190613f47565b612194565b5b5b5b5050565b60003084604051602001611f9b929190614094565b604051602081830303815290604052805190602001209050846005600083815260200190815260200160002060006101000a81548173ffffffffffffffffffffffffffffffffffffffff021916908373ffffffffffffffffffffffffffffffffffffffff160217905550807fb5e6e01e79f91267dc17b4e6314d5d4d03593d2ceee0fbb452b750bd70ea5af960405160405180910390a2600260009054906101000a900473ffffffffffffffffffffffffffffffffffffffff1673ffffffffffffffffffffffffffffffffffffffff16634000aea08685856040518463ffffffff1660e01b8152600401612091939291906140c0565b602060405180830381600087803b1580156120ab57600080fd5b505af11580156120bf573d6000803e3d6000fd5b505050506040513d601f19601f820116820180604052508101906120e39190613c9b565b612122576040517f08c379a000000000000000000000000000000000000000000000000000000000815260040161211990614170565b60405180910390fd5b949350505050565b6121326127cc565b600060208361214191906141bf565b1461216d5760208261215391906141bf565b602061215f91906141f0565b8261216a9190613dd2565b91505b81836020018181525050604051808452600081528281016020016040525082905092915050565b60178167ffffffffffffffff16116121cb576121c58160058460ff16901b60ff1617846123fe90919063ffffffff16565b50612314565b60ff8167ffffffffffffffff1611612221576121fa601860058460ff16901b17846123fe90919063ffffffff16565b5061221b8167ffffffffffffffff1660018561241e9092919063ffffffff16565b50612313565b61ffff8167ffffffffffffffff161161227857612251601960058460ff16901b17846123fe90919063ffffffff16565b506122728167ffffffffffffffff1660028561241e9092919063ffffffff16565b50612312565b63ffffffff8167ffffffffffffffff16116122d1576122aa601a60058460ff16901b17846123fe90919063ffffffff16565b506122cb8167ffffffffffffffff1660048561241e9092919063ffffffff16565b50612311565b6122ee601b60058460ff16901b17846123fe90919063ffffffff16565b5061230f8167ffffffffffffffff1660088561241e9092919063ffffffff16565b505b5b5b5b505050565b6123216127cc565b61233383846000015151848551612440565b905092915050565b61235960036005600660ff16901b17836123fe90919063ffffffff16565b506123ae82827fffffffffffffffffffffffffffffffffffffffffffffffffffffffffffffffff61238a9190613f47565b60405160200161239a9190612a62565b60405160208183030381529060405261252f565b5050565b6123d060026005600660ff16901b17836123fe90919063ffffffff16565b506123fa82826040516020016123e69190612a62565b60405160208183030381529060405261252f565b5050565b6124066127cc565b6124168384600001515184612554565b905092915050565b6124266127cc565b6124378485600001515185856125ab565b90509392505050565b6124486127cc565b825182111561245657600080fd5b846020015182856124679190613dd2565b111561249c5761249b85600261248c886020015188876124879190613dd2565b612639565b6124969190614224565b612655565b5b6000808651805187602083010193508088870111156124bb5787860182525b60208701925050505b6020841061250257805182526020826124dd9190613dd2565b91506020816124ec9190613dd2565b90506020846124fb91906141f0565b93506124c4565b60006001856020036101000a03905080198251168184511681811785525050508692505050949350505050565b61253c8260028351612194565b61254f818361231990919063ffffffff16565b505050565b61255c6127cc565b8360200151831061258257612581846002866020015161257c9190614224565b612655565b5b835180516020858301018481538186141561259e576001820183525b5050508390509392505050565b6125b36127cc565b846020015184836125c49190613dd2565b11156125ec576125eb85600286856125dc9190613dd2565b6125e69190614224565b612655565b5b60006001836101006125fe91906143b1565b61260891906141f0565b9050855183868201018583198251161781528151858801111561262b5784870182525b505085915050949350505050565b60008183111561264b5782905061264f565b8190505b92915050565b600082600001519050612668838361212a565b506126738382612319565b50505050565b82805461268590613b42565b90600052602060002090601f0160209004810192826126a757600085556126ee565b82601f106126c057805160ff19168380011785556126ee565b828001600101855582156126ee579182015b828111156126ed5782518255916020019190600101906126d2565b5b5090506126fb91906127e6565b5090565b82805482825590600052602060002090810192821561274e579160200282015b8281111561274d57825182908051906020019061273d929190612679565b509160200191906001019061271f565b5b50905061275b9190612803565b5090565b6040518060a0016040528060008019168152602001600073ffffffffffffffffffffffffffffffffffffffff16815260200160007bffffffffffffffffffffffffffffffffffffffffffffffffffffffff19168152602001600081526020016127c66127cc565b81525090565b604051806040016040528060608152602001600081525090565b5b808211156127ff5760008160009055506001016127e7565b5090565b5b80821115612823576000818161281a9190612827565b50600101612804565b5090565b50805461283390613b42565b6000825580601f106128455750612864565b601f01602090049060005260206000209081019061286391906127e6565b5b50565b6000604051905090565b600080fd5b600080fd5b600080fd5b600080fd5b6000601f19601f8301169050919050565b7f4e487b7100000000000000000000000000000000000000000000000000000000600052604160045260246000fd5b6128ce82612885565b810181811067ffffffffffffffff821117156128ed576128ec612896565b5b80604052505050565b6000612900612867565b905061290c82826128c5565b919050565b600067ffffffffffffffff82111561292c5761292b612896565b5b61293582612885565b9050602081019050919050565b82818337600083830152505050565b600061296461295f84612911565b6128f6565b9050828152602081018484840111156129805761297f612880565b5b61298b848285612942565b509392505050565b600082601f8301126129a8576129a761287b565b5b81356129b8848260208601612951565b91505092915050565b6000819050919050565b6129d4816129c1565b81146129df57600080fd5b50565b6000813590506129f1816129cb565b92915050565b60008060408385031215612a0e57612a0d612871565b5b600083013567ffffffffffffffff811115612a2c57612a2b612876565b5b612a3885828601612993565b9250506020612a49858286016129e2565b9150509250929050565b612a5c816129c1565b82525050565b6000602082019050612a776000830184612a53565b92915050565b600060208284031215612a9357612a92612871565b5b6000612aa1848285016129e2565b91505092915050565b600081519050919050565b600082825260208201905092915050565b6000819050602082019050919050565b600081519050919050565b600082825260208201905092915050565b60005b83811015612b10578082015181840152602081019050612af5565b83811115612b1f576000848401525b50505050565b6000612b3082612ad6565b612b3a8185612ae1565b9350612b4a818560208601612af2565b612b5381612885565b840191505092915050565b612b67816129c1565b82525050565b600073ffffffffffffffffffffffffffffffffffffffff82169050919050565b6000612b9882612b6d565b9050919050565b612ba881612b8d565b82525050565b60008115159050919050565b612bc381612bae565b82525050565b600060a0830160008301518482036000860152612be68282612b25565b9150506020830151612bfb6020860182612b5e565b506040830151612c0e6040860182612b9f565b506060830151612c216060860182612b5e565b506080830151612c346080860182612bba565b508091505092915050565b6000612c4b8383612bc9565b905092915050565b6000602082019050919050565b6000612c6b82612aaa565b612c758185612ab5565b935083602082028501612c8785612ac6565b8060005b85811015612cc35784840389528151612ca48582612c3f565b9450612caf83612c53565b925060208a01995050600181019050612c8b565b50829750879550505050505092915050565b60006020820190508181036000830152612cef8184612c60565b905092915050565b60048110612d0457600080fd5b50565b600081359050612d1681612cf7565b92915050565b60008060408385031215612d3357612d32612871565b5b6000612d41858286016129e2565b9250506020612d5285828601612d07565b9150509250929050565b600081519050919050565b600082825260208201905092915050565b6000819050602082019050919050565b60006060830160008301518482036000860152612da58282612b25565b91505060208301518482036020860152612dbf8282612b25565b91505060408301518482036040860152612dd98282612b25565b9150508091505092915050565b6000612df28383612d88565b905092915050565b6000602082019050919050565b6000612e1282612d5c565b612e1c8185612d67565b935083602082028501612e2e85612d78565b8060005b85811015612e6a5784840389528151612e4b8582612de6565b9450612e5683612dfa565b925060208a01995050600181019050612e32565b50829750879550505050505092915050565b60006020820190508181036000830152612e968184612e07565b905092915050565b612ea781612b8d565b8114612eb257600080fd5b50565b600081359050612ec481612e9e565b92915050565b60008060408385031215612ee157612ee0612871565b5b6000612eef85828601612eb5565b9250506020612f00858286016129e2565b9150509250929050565b6000819050919050565b612f1d81612f0a565b82525050565b6000602082019050612f386000830184612f14565b92915050565b612f4781612f0a565b8114612f5257600080fd5b50565b600081359050612f6481612f3e565b92915050565b60008060408385031215612f8157612f80612871565b5b6000612f8f85828601612f55565b9250506020612fa0858286016129e2565b9150509250929050565b600081519050919050565b600082825260208201905092915050565b6000819050602082019050919050565b7f4e487b7100000000000000000000000000000000000000000000000000000000600052602160045260246000fd5b6004811061301657613015612fd6565b5b50565b600081905061302782613005565b919050565b600061303782613019565b9050919050565b6130478161302c565b82525050565b6004811061305e5761305d612fd6565b5b50565b600081905061306f8261304d565b919050565b600061307f82613061565b9050919050565b61308f81613074565b82525050565b600381106130a6576130a5612fd6565b5b50565b60008190506130b782613095565b919050565b60006130c7826130a9565b9050919050565b6130d7816130bc565b82525050565b600081519050919050565b600082825260208201905092915050565b6000819050602082019050919050565b60006131158383612b25565b905092915050565b6000602082019050919050565b6000613135826130dd565b61313f81856130e8565b935083602082028501613151856130f9565b8060005b8581101561318d578484038952815161316e8582613109565b94506131798361311d565b925060208a01995050600181019050613155565b50829750879550505050505092915050565b6000610140830160008301516131b86000860182613086565b5060208301516131cb6020860182613086565b5060408301516131de60408601826130ce565b50606083015184820360608601526131f68282612b25565b915050608083015184820360808601526132108282612b25565b91505060a083015161322560a0860182612b5e565b5060c083015184820360c086015261323d8282612b25565b91505060e083015161325260e0860182612b5e565b50610100830151613267610100860182612b5e565b50610120830151848203610120860152613281828261312a565b9150508091505092915050565b600060a0830160008301516132a66000860182612b5e565b5060208301516132b96020860182612b9f565b5060408301516132cc6040860182612b5e565b5060608301516132df606086018261303e565b50608083015184820360808601526132f7828261319f565b9150508091505092915050565b6000613310838361328e565b905092915050565b6000602082019050919050565b600061333082612faa565b61333a8185612fb5565b93508360208202850161334c85612fc6565b8060005b8581101561338857848403895281516133698582613304565b945061337483613318565b925060208a01995050600181019050613350565b50829750879550505050505092915050565b600060208201905081810360008301526133b48184613325565b905092915050565b600080604083850312156133d3576133d2612871565b5b60006133e1858286016129e2565b92505060206133f2858286016129e2565b9150509250929050565b600067ffffffffffffffff82111561341757613416612896565b5b602082029050602081019050919050565b600080fd5b600080fd5b600080fd5b60006060828403121561344d5761344c61342d565b5b61345760606128f6565b9050600082013567ffffffffffffffff81111561347757613476613432565b5b61348384828501612993565b600083015250602082013567ffffffffffffffff8111156134a7576134a6613432565b5b6134b384828501612993565b602083015250604082013567ffffffffffffffff8111156134d7576134d6613432565b5b6134e384828501612993565b60408301525092915050565b60006135026134fd846133fc565b6128f6565b9050808382526020820190506020840283018581111561352557613524613428565b5b835b8181101561356c57803567ffffffffffffffff81111561354a5761354961287b565b5b8086016135578982613437565b85526020850194505050602081019050613527565b5050509392505050565b600082601f83011261358b5761358a61287b565b5b813561359b8482602086016134ef565b91505092915050565b600481106135b157600080fd5b50565b6000813590506135c3816135a4565b92915050565b600381106135d657600080fd5b50565b6000813590506135e8816135c9565b92915050565b600067ffffffffffffffff82111561360957613608612896565b5b602082029050602081019050919050565b600061362d613628846135ee565b6128f6565b905080838252602082019050602084028301858111156136505761364f613428565b5b835b8181101561369757803567ffffffffffffffff8111156136755761367461287b565b5b8086016136828982612993565b85526020850194505050602081019050613652565b5050509392505050565b600082601f8301126136b6576136b561287b565b5b81356136c684826020860161361a565b91505092915050565b600061014082840312156136e6576136e561342d565b5b6136f16101406128f6565b90506000613701848285016135b4565b6000830152506020613715848285016135b4565b6020830152506040613729848285016135d9565b604083015250606082013567ffffffffffffffff81111561374d5761374c613432565b5b61375984828501612993565b606083015250608082013567ffffffffffffffff81111561377d5761377c613432565b5b61378984828501612993565b60808301525060a061379d848285016129e2565b60a08301525060c082013567ffffffffffffffff8111156137c1576137c0613432565b5b6137cd84828501612993565b60c08301525060e06137e1848285016129e2565b60e0830152506101006137f6848285016129e2565b6101008301525061012082013567ffffffffffffffff81111561381c5761381b613432565b5b613828848285016136a1565b6101208301525092915050565b6000806040838503121561384c5761384b612871565b5b600083013567ffffffffffffffff81111561386a57613869612876565b5b61387685828601613576565b925050602083013567ffffffffffffffff81111561389757613896612876565b5b6138a3858286016136cf565b9150509250929050565b6138b681612b8d565b82525050565b6138c58161302c565b82525050565b6000610140830160008301516138e46000860182613086565b5060208301516138f76020860182613086565b50604083015161390a60408601826130ce565b50606083015184820360608601526139228282612b25565b9150506080830151848203608086015261393c8282612b25565b91505060a083015161395160a0860182612b5e565b5060c083015184820360c08601526139698282612b25565b91505060e083015161397e60e0860182612b5e565b50610100830151613993610100860182612b5e565b506101208301518482036101208601526139ad828261312a565b9150508091505092915050565b600060a0820190506139cf6000830188612a53565b6139dc60208301876138ad565b6139e96040830186612a53565b6139f660608301856138bc565b8181036080830152613a0881846138cb565b90509695505050505050565b600082825260208201905092915050565b6000613a3082612ad6565b613a3a8185613a14565b9350613a4a818560208601612af2565b613a5381612885565b840191505092915050565b60006060820190508181036000830152613a788186613a25565b90508181036020830152613a8c8185613a25565b90508181036040830152613aa08184613a25565b9050949350505050565b613ab381612bae565b82525050565b600060a0820190508181036000830152613ad38188613a25565b9050613ae26020830187612a53565b613aef60408301866138ad565b613afc6060830185612a53565b613b096080830184613aaa565b9695505050505050565b7f4e487b7100000000000000000000000000000000000000000000000000000000600052602260045260246000fd5b60006002820490506001821680613b5a57607f821691505b60208210811415613b6e57613b6d613b13565b5b50919050565b7f4e487b7100000000000000000000000000000000000000000000000000000000600052603260045260246000fd5b7f596f752063616e6e6f7420636c6f736520746869732072657175657374000000600082015250565b6000613bd9601d83613a14565b9150613be482613ba3565b602082019050919050565b60006020820190508181036000830152613c0881613bcc565b9050919050565b6000604082019050613c246000830185612a53565b613c3160208301846138bc565b9392505050565b6000606082019050613c4d60008301866138ad565b613c5a60208301856138ad565b613c676040830184612a53565b949350505050565b613c7881612bae565b8114613c8357600080fd5b50565b600081519050613c9581613c6f565b92915050565b600060208284031215613cb157613cb0612871565b5b6000613cbf84828501613c86565b91505092915050565b7f536f75726365206d75737420626520746865206f7261636c65206f662074686560008201527f2072657175657374000000000000000000000000000000000000000000000000602082015250565b6000613d24602883613a14565b9150613d2f82613cc8565b604082019050919050565b60006020820190508181036000830152613d5381613d17565b9050919050565b7f4e487b7100000000000000000000000000000000000000000000000000000000600052601160045260246000fd5b6000613d94826129c1565b91507fffffffffffffffffffffffffffffffffffffffffffffffffffffffffffffffff821415613dc757613dc6613d5a565b5b600182019050919050565b6000613ddd826129c1565b9150613de8836129c1565b9250827fffffffffffffffffffffffffffffffffffffffffffffffffffffffffffffffff03821115613e1d57613e1c613d5a565b5b828201905092915050565b60007fffffffff0000000000000000000000000000000000000000000000000000000082169050919050565b613e5d81613e28565b82525050565b600081519050919050565b600082825260208201905092915050565b6000613e8a82613e63565b613e948185613e6e565b9350613ea4818560208601612af2565b613ead81612885565b840191505092915050565b600061010082019050613ece600083018b6138ad565b613edb602083018a612a53565b613ee86040830189612f14565b613ef560608301886138ad565b613f026080830187613e54565b613f0f60a0830186612a53565b613f1c60c0830185612a53565b81810360e0830152613f2e8184613e7f565b90509998505050505050505050565b6000819050919050565b6000613f5282613f3d565b9150613f5d83613f3d565b9250827f800000000000000000000000000000000000000000000000000000000000000001821260008412151615613f9857613f97613d5a565b5b827f7fffffffffffffffffffffffffffffffffffffffffffffffffffffffffffffff018213600084121615613fd057613fcf613d5a565b5b828203905092915050565b6000819050919050565b6000614000613ffb613ff684612b6d565b613fdb565b612b6d565b9050919050565b600061401282613fe5565b9050919050565b600061402482614007565b9050919050565b60008160601b9050919050565b60006140438261402b565b9050919050565b600061405582614038565b9050919050565b61406d61406882614019565b61404a565b82525050565b6000819050919050565b61408e614089826129c1565b614073565b82525050565b60006140a0828561405c565b6014820191506140b0828461407d565b6020820191508190509392505050565b60006060820190506140d560008301866138ad565b6140e26020830185612a53565b81810360408301526140f48184613e7f565b9050949350505050565b7f756e61626c6520746f207472616e73666572416e6443616c6c20746f206f726160008201527f636c650000000000000000000000000000000000000000000000000000000000602082015250565b600061415a602383613a14565b9150614165826140fe565b604082019050919050565b600060208201905081810360008301526141898161414d565b9050919050565b7f4e487b7100000000000000000000000000000000000000000000000000000000600052601260045260246000fd5b60006141ca826129c1565b91506141d5836129c1565b9250826141e5576141e4614190565b5b828206905092915050565b60006141fb826129c1565b9150614206836129c1565b92508282101561421957614218613d5a565b5b828203905092915050565b600061422f826129c1565b915061423a836129c1565b9250817fffffffffffffffffffffffffffffffffffffffffffffffffffffffffffffffff048311821515161561427357614272613d5a565b5b828202905092915050565b60008160011c9050919050565b6000808291508390505b60018511156142d5578086048111156142b1576142b0613d5a565b5b60018516156142c05780820291505b80810290506142ce8561427e565b9450614295565b94509492505050565b6000826142ee57600190506143aa565b816142fc57600090506143aa565b8160018114614312576002811461431c5761434b565b60019150506143aa565b60ff84111561432e5761432d613d5a565b5b8360020a91508482111561434557614344613d5a565b5b506143aa565b5060208310610133831016604e8410600b84101617156143805782820a90508381111561437b5761437a613d5a565b5b6143aa565b61438d848484600161428b565b925090508184048111156143a4576143a3613d5a565b5b81810290505b9392505050565b60006143bc826129c1565b91506143c7836129c1565b92506143f47fffffffffffffffffffffffffffffffffffffffffffffffffffffffffffffffff84846142de565b90509291505056fe68747470733a2f2f6d696e2d6170692e63727970746f636f6d706172652e636f6d2f646174612f70726963653f6673796d3d4d41544943267473796d733d555344a2646970667358221220cce6430ddfc7bcd98efd9fc51e10124c3f9535eb5a7f5ce30299a35f2038eff364736f6c63430008090033",
  "linkReferences": {},
  "deployedLinkReferences": {}
}